{
  "contractName": "CryptoBatz",
  "abi": [
    {
      "inputs": [
        {
          "internalType": "string",
          "name": "initialBaseUri",
          "type": "string"
        }
      ],
      "stateMutability": "nonpayable",
      "type": "constructor"
    },
    {
      "anonymous": false,
      "inputs": [
        {
          "indexed": true,
          "internalType": "address",
          "name": "_to",
          "type": "address"
        },
        {
          "indexed": true,
          "internalType": "uint256",
          "name": "_id",
          "type": "uint256"
        }
      ],
      "name": "AncientBatzMinted",
      "type": "event"
    },
    {
      "anonymous": false,
      "inputs": [
        {
          "indexed": false,
          "internalType": "address",
          "name": "_address",
          "type": "address"
        }
      ],
      "name": "AncientBatzMinterUpdated",
      "type": "event"
    },
    {
      "anonymous": false,
      "inputs": [
        {
          "indexed": true,
          "internalType": "address",
          "name": "owner",
          "type": "address"
        },
        {
          "indexed": true,
          "internalType": "address",
          "name": "approved",
          "type": "address"
        },
        {
          "indexed": true,
          "internalType": "uint256",
          "name": "tokenId",
          "type": "uint256"
        }
      ],
      "name": "Approval",
      "type": "event"
    },
    {
      "anonymous": false,
      "inputs": [
        {
          "indexed": true,
          "internalType": "address",
          "name": "owner",
          "type": "address"
        },
        {
          "indexed": true,
          "internalType": "address",
          "name": "operator",
          "type": "address"
        },
        {
          "indexed": false,
          "internalType": "bool",
          "name": "approved",
          "type": "bool"
        }
      ],
      "name": "ApprovalForAll",
      "type": "event"
    },
    {
      "anonymous": false,
      "inputs": [
        {
          "indexed": false,
          "internalType": "string",
          "name": "_uri",
          "type": "string"
        }
      ],
      "name": "BaseUriUpdated",
      "type": "event"
    },
    {
      "anonymous": false,
      "inputs": [],
      "name": "DutchAuctionConfigUpdated",
      "type": "event"
    },
    {
      "anonymous": false,
      "inputs": [
        {
          "indexed": true,
          "internalType": "contract IERC20",
          "name": "token",
          "type": "address"
        },
        {
          "indexed": false,
          "internalType": "address",
          "name": "to",
          "type": "address"
        },
        {
          "indexed": false,
          "internalType": "uint256",
          "name": "amount",
          "type": "uint256"
        }
      ],
      "name": "ERC20PaymentReleased",
      "type": "event"
    },
    {
      "anonymous": false,
      "inputs": [
        {
          "indexed": true,
          "internalType": "address",
          "name": "previousOwner",
          "type": "address"
        },
        {
          "indexed": true,
          "internalType": "address",
          "name": "newOwner",
          "type": "address"
        }
      ],
      "name": "OwnershipTransferred",
      "type": "event"
    },
    {
      "anonymous": false,
      "inputs": [
        {
          "indexed": false,
          "internalType": "address",
          "name": "account",
          "type": "address"
        },
        {
          "indexed": false,
          "internalType": "uint256",
          "name": "shares",
          "type": "uint256"
        }
      ],
      "name": "PayeeAdded",
      "type": "event"
    },
    {
      "anonymous": false,
      "inputs": [
        {
          "indexed": false,
          "internalType": "address",
          "name": "from",
          "type": "address"
        },
        {
          "indexed": false,
          "internalType": "uint256",
          "name": "amount",
          "type": "uint256"
        }
      ],
      "name": "PaymentReceived",
      "type": "event"
    },
    {
      "anonymous": false,
      "inputs": [
        {
          "indexed": false,
          "internalType": "address",
          "name": "to",
          "type": "address"
        },
        {
          "indexed": false,
          "internalType": "uint256",
          "name": "amount",
          "type": "uint256"
        }
      ],
      "name": "PaymentReleased",
      "type": "event"
    },
    {
      "anonymous": false,
      "inputs": [],
      "name": "PresaleConfigUpdated",
      "type": "event"
    },
    {
      "anonymous": false,
      "inputs": [
        {
          "indexed": false,
          "internalType": "uint256",
          "name": "_hash",
          "type": "uint256"
        }
      ],
      "name": "ProvenanceHashUpdated",
      "type": "event"
    },
    {
      "anonymous": false,
      "inputs": [
        {
          "indexed": false,
          "internalType": "uint256",
          "name": "_value",
          "type": "uint256"
        }
      ],
      "name": "StartingIndexSet",
      "type": "event"
    },
    {
      "anonymous": false,
      "inputs": [
        {
          "indexed": true,
          "internalType": "address",
          "name": "from",
          "type": "address"
        },
        {
          "indexed": true,
          "internalType": "address",
          "name": "to",
          "type": "address"
        },
        {
          "indexed": true,
          "internalType": "uint256",
          "name": "tokenId",
          "type": "uint256"
        }
      ],
      "name": "Transfer",
      "type": "event"
    },
    {
      "anonymous": false,
      "inputs": [
        {
          "indexed": false,
          "internalType": "address",
          "name": "_signer",
          "type": "address"
        }
      ],
      "name": "WhitelistSignerUpdated",
      "type": "event"
    },
    {
      "inputs": [],
      "name": "ANCIENT_BATZ_SUPPLY",
      "outputs": [
        {
          "internalType": "uint256",
          "name": "",
          "type": "uint256"
        }
      ],
      "stateMutability": "view",
      "type": "function",
      "constant": true
    },
    {
      "inputs": [],
      "name": "CRYPTO_BATZ_SUPPLY",
      "outputs": [
        {
          "internalType": "uint256",
          "name": "",
          "type": "uint256"
        }
      ],
      "stateMutability": "view",
      "type": "function",
      "constant": true
    },
    {
      "inputs": [],
      "name": "MAX_OWNER_RESERVE",
      "outputs": [
        {
          "internalType": "uint256",
          "name": "",
          "type": "uint256"
        }
      ],
      "stateMutability": "view",
      "type": "function",
      "constant": true
    },
    {
      "inputs": [],
      "name": "PROVENANCE_HASH",
      "outputs": [
        {
          "internalType": "uint256",
          "name": "",
          "type": "uint256"
        }
      ],
      "stateMutability": "view",
      "type": "function",
      "constant": true
    },
    {
      "inputs": [],
      "name": "ancientBatzMinter",
      "outputs": [
        {
          "internalType": "address",
          "name": "",
          "type": "address"
        }
      ],
      "stateMutability": "view",
      "type": "function",
      "constant": true
    },
    {
      "inputs": [
        {
          "internalType": "address",
          "name": "to",
          "type": "address"
        },
        {
          "internalType": "uint256",
          "name": "tokenId",
          "type": "uint256"
        }
      ],
      "name": "approve",
      "outputs": [],
      "stateMutability": "nonpayable",
      "type": "function"
    },
    {
      "inputs": [
        {
          "internalType": "address",
          "name": "owner",
          "type": "address"
        }
      ],
      "name": "balanceOf",
      "outputs": [
        {
          "internalType": "uint256",
          "name": "",
          "type": "uint256"
        }
      ],
      "stateMutability": "view",
      "type": "function",
      "constant": true
    },
    {
      "inputs": [],
      "name": "baseURI",
      "outputs": [
        {
          "internalType": "string",
          "name": "",
          "type": "string"
        }
      ],
      "stateMutability": "view",
      "type": "function",
      "constant": true
    },
    {
      "inputs": [],
      "name": "dutchAuctionConfig",
      "outputs": [
        {
          "internalType": "uint32",
          "name": "txLimit",
          "type": "uint32"
        },
        {
          "internalType": "uint32",
          "name": "startTime",
          "type": "uint32"
        },
        {
          "internalType": "uint32",
          "name": "bottomTime",
          "type": "uint32"
        },
        {
          "internalType": "uint32",
          "name": "stepInterval",
          "type": "uint32"
        },
        {
          "internalType": "uint256",
          "name": "startPrice",
          "type": "uint256"
        },
        {
          "internalType": "uint256",
          "name": "bottomPrice",
          "type": "uint256"
        },
        {
          "internalType": "uint256",
          "name": "priceStep",
          "type": "uint256"
        }
      ],
      "stateMutability": "view",
      "type": "function",
      "constant": true
    },
    {
      "inputs": [
        {
          "internalType": "uint256",
          "name": "tokenId",
          "type": "uint256"
        }
      ],
      "name": "getApproved",
      "outputs": [
        {
          "internalType": "address",
          "name": "",
          "type": "address"
        }
      ],
      "stateMutability": "view",
      "type": "function",
      "constant": true
    },
    {
      "inputs": [
        {
          "internalType": "address",
          "name": "owner",
          "type": "address"
        },
        {
          "internalType": "address",
          "name": "operator",
          "type": "address"
        }
      ],
      "name": "isApprovedForAll",
      "outputs": [
        {
          "internalType": "bool",
          "name": "",
          "type": "bool"
        }
      ],
      "stateMutability": "view",
      "type": "function",
      "constant": true
    },
    {
      "inputs": [],
      "name": "name",
      "outputs": [
        {
          "internalType": "string",
          "name": "",
          "type": "string"
        }
      ],
      "stateMutability": "view",
      "type": "function",
      "constant": true
    },
    {
      "inputs": [],
      "name": "owner",
      "outputs": [
        {
          "internalType": "address",
          "name": "",
          "type": "address"
        }
      ],
      "stateMutability": "view",
      "type": "function",
      "constant": true
    },
    {
      "inputs": [
        {
          "internalType": "uint256",
          "name": "tokenId",
          "type": "uint256"
        }
      ],
      "name": "ownerOf",
      "outputs": [
        {
          "internalType": "address",
          "name": "",
          "type": "address"
        }
      ],
      "stateMutability": "view",
      "type": "function",
      "constant": true
    },
    {
      "inputs": [
        {
          "internalType": "uint256",
          "name": "index",
          "type": "uint256"
        }
      ],
      "name": "payee",
      "outputs": [
        {
          "internalType": "address",
          "name": "",
          "type": "address"
        }
      ],
      "stateMutability": "view",
      "type": "function",
      "constant": true
    },
    {
      "inputs": [],
      "name": "presaleConfig",
      "outputs": [
        {
          "internalType": "uint32",
          "name": "startTime",
          "type": "uint32"
        },
        {
          "internalType": "uint32",
          "name": "endTime",
          "type": "uint32"
        },
        {
          "internalType": "uint32",
          "name": "supplyLimit",
          "type": "uint32"
        },
        {
          "internalType": "uint256",
          "name": "mintPrice",
          "type": "uint256"
        }
      ],
      "stateMutability": "view",
      "type": "function",
      "constant": true
    },
    {
      "inputs": [],
      "name": "randomizedStartIndex",
      "outputs": [
        {
          "internalType": "uint256",
          "name": "",
          "type": "uint256"
        }
      ],
      "stateMutability": "view",
      "type": "function",
      "constant": true
    },
    {
      "inputs": [
        {
          "internalType": "address payable",
          "name": "account",
          "type": "address"
        }
      ],
      "name": "release",
      "outputs": [],
      "stateMutability": "nonpayable",
      "type": "function"
    },
    {
      "inputs": [
        {
          "internalType": "contract IERC20",
          "name": "token",
          "type": "address"
        },
        {
          "internalType": "address",
          "name": "account",
          "type": "address"
        }
      ],
      "name": "release",
      "outputs": [],
      "stateMutability": "nonpayable",
      "type": "function"
    },
    {
      "inputs": [
        {
          "internalType": "contract IERC20",
          "name": "token",
          "type": "address"
        },
        {
          "internalType": "address",
          "name": "account",
          "type": "address"
        }
      ],
      "name": "released",
      "outputs": [
        {
          "internalType": "uint256",
          "name": "",
          "type": "uint256"
        }
      ],
      "stateMutability": "view",
      "type": "function",
      "constant": true
    },
    {
      "inputs": [
        {
          "internalType": "address",
          "name": "account",
          "type": "address"
        }
      ],
      "name": "released",
      "outputs": [
        {
          "internalType": "uint256",
          "name": "",
          "type": "uint256"
        }
      ],
      "stateMutability": "view",
      "type": "function",
      "constant": true
    },
    {
      "inputs": [],
      "name": "renounceOwnership",
      "outputs": [],
      "stateMutability": "nonpayable",
      "type": "function"
    },
    {
      "inputs": [
        {
          "internalType": "uint256",
          "name": "",
          "type": "uint256"
        },
        {
          "internalType": "uint256",
          "name": "value",
          "type": "uint256"
        }
      ],
      "name": "royaltyInfo",
      "outputs": [
        {
          "internalType": "address",
          "name": "receiver",
          "type": "address"
        },
        {
          "internalType": "uint256",
          "name": "royaltyAmount",
          "type": "uint256"
        }
      ],
      "stateMutability": "view",
      "type": "function",
      "constant": true
    },
    {
      "inputs": [],
      "name": "royaltyRecipient",
      "outputs": [
        {
          "internalType": "contract SutterTreasury",
          "name": "",
          "type": "address"
        }
      ],
      "stateMutability": "view",
      "type": "function",
      "constant": true
    },
    {
      "inputs": [
        {
          "internalType": "address",
          "name": "from",
          "type": "address"
        },
        {
          "internalType": "address",
          "name": "to",
          "type": "address"
        },
        {
          "internalType": "uint256",
          "name": "tokenId",
          "type": "uint256"
        }
      ],
      "name": "safeTransferFrom",
      "outputs": [],
      "stateMutability": "nonpayable",
      "type": "function"
    },
    {
      "inputs": [
        {
          "internalType": "address",
          "name": "from",
          "type": "address"
        },
        {
          "internalType": "address",
          "name": "to",
          "type": "address"
        },
        {
          "internalType": "uint256",
          "name": "tokenId",
          "type": "uint256"
        },
        {
          "internalType": "bytes",
          "name": "_data",
          "type": "bytes"
        }
      ],
      "name": "safeTransferFrom",
      "outputs": [],
      "stateMutability": "nonpayable",
      "type": "function"
    },
    {
      "inputs": [
        {
          "internalType": "address",
          "name": "operator",
          "type": "address"
        },
        {
          "internalType": "bool",
          "name": "approved",
          "type": "bool"
        }
      ],
      "name": "setApprovalForAll",
      "outputs": [],
      "stateMutability": "nonpayable",
      "type": "function"
    },
    {
      "inputs": [
        {
          "internalType": "address",
          "name": "account",
          "type": "address"
        }
      ],
      "name": "shares",
      "outputs": [
        {
          "internalType": "uint256",
          "name": "",
          "type": "uint256"
        }
      ],
      "stateMutability": "view",
      "type": "function",
      "constant": true
    },
    {
      "inputs": [],
      "name": "symbol",
      "outputs": [
        {
          "internalType": "string",
          "name": "",
          "type": "string"
        }
      ],
      "stateMutability": "view",
      "type": "function",
      "constant": true
    },
    {
      "inputs": [
        {
          "internalType": "uint256",
          "name": "tokenId",
          "type": "uint256"
        }
      ],
      "name": "tokenURI",
      "outputs": [
        {
          "internalType": "string",
          "name": "",
          "type": "string"
        }
      ],
      "stateMutability": "view",
      "type": "function",
      "constant": true
    },
    {
      "inputs": [
        {
          "internalType": "contract IERC20",
          "name": "token",
          "type": "address"
        }
      ],
      "name": "totalReleased",
      "outputs": [
        {
          "internalType": "uint256",
          "name": "",
          "type": "uint256"
        }
      ],
      "stateMutability": "view",
      "type": "function",
      "constant": true
    },
    {
      "inputs": [],
      "name": "totalReleased",
      "outputs": [
        {
          "internalType": "uint256",
          "name": "",
          "type": "uint256"
        }
      ],
      "stateMutability": "view",
      "type": "function",
      "constant": true
    },
    {
      "inputs": [],
      "name": "totalShares",
      "outputs": [
        {
          "internalType": "uint256",
          "name": "",
          "type": "uint256"
        }
      ],
      "stateMutability": "view",
      "type": "function",
      "constant": true
    },
    {
      "inputs": [],
      "name": "totalSupply",
      "outputs": [
        {
          "internalType": "uint256",
          "name": "",
          "type": "uint256"
        }
      ],
      "stateMutability": "view",
      "type": "function",
      "constant": true
    },
    {
      "inputs": [
        {
          "internalType": "address",
          "name": "from",
          "type": "address"
        },
        {
          "internalType": "address",
          "name": "to",
          "type": "address"
        },
        {
          "internalType": "uint256",
          "name": "tokenId",
          "type": "uint256"
        }
      ],
      "name": "transferFrom",
      "outputs": [],
      "stateMutability": "nonpayable",
      "type": "function"
    },
    {
      "inputs": [
        {
          "internalType": "address",
          "name": "newOwner",
          "type": "address"
        }
      ],
      "name": "transferOwnership",
      "outputs": [],
      "stateMutability": "nonpayable",
      "type": "function"
    },
    {
      "inputs": [],
      "name": "whitelistSigner",
      "outputs": [
        {
          "internalType": "address",
          "name": "",
          "type": "address"
        }
      ],
      "stateMutability": "view",
      "type": "function",
      "constant": true
    },
    {
      "inputs": [],
      "name": "withdrawAll",
      "outputs": [],
      "stateMutability": "nonpayable",
      "type": "function"
    },
    {
      "stateMutability": "payable",
      "type": "receive",
      "payable": true
    },
    {
      "inputs": [
        {
          "internalType": "bytes",
          "name": "signature",
          "type": "bytes"
        },
        {
          "internalType": "uint256",
          "name": "numberOfTokens",
          "type": "uint256"
        },
        {
          "internalType": "uint256",
          "name": "approvedLimit",
          "type": "uint256"
        }
      ],
      "name": "buyPresale",
      "outputs": [],
      "stateMutability": "payable",
      "type": "function",
      "payable": true
    },
    {
      "inputs": [
        {
          "internalType": "uint256",
          "name": "numberOfTokens",
          "type": "uint256"
        }
      ],
      "name": "buyPublic",
      "outputs": [],
      "stateMutability": "payable",
      "type": "function",
      "payable": true
    },
    {
      "inputs": [],
      "name": "getCurrentAuctionPrice",
      "outputs": [
        {
          "internalType": "uint256",
          "name": "currentPrice",
          "type": "uint256"
        }
      ],
      "stateMutability": "view",
      "type": "function",
      "constant": true
    },
    {
      "inputs": [
        {
          "internalType": "address",
          "name": "wallet",
          "type": "address"
        }
      ],
      "name": "tokensOwnedBy",
      "outputs": [
        {
          "internalType": "uint256[]",
          "name": "",
          "type": "uint256[]"
        }
      ],
      "stateMutability": "view",
      "type": "function",
      "constant": true
    },
    {
      "inputs": [
        {
          "internalType": "bytes4",
          "name": "interfaceId",
          "type": "bytes4"
        }
      ],
      "name": "supportsInterface",
      "outputs": [
        {
          "internalType": "bool",
          "name": "",
          "type": "bool"
        }
      ],
      "stateMutability": "view",
      "type": "function",
      "constant": true
    },
    {
      "inputs": [
        {
          "internalType": "address",
          "name": "to",
          "type": "address"
        },
        {
          "internalType": "uint256",
          "name": "numberOfTokens",
          "type": "uint256"
        }
      ],
      "name": "reserve",
      "outputs": [],
      "stateMutability": "nonpayable",
      "type": "function"
    },
    {
      "inputs": [],
      "name": "rollStartIndex",
      "outputs": [],
      "stateMutability": "nonpayable",
      "type": "function"
    },
    {
      "inputs": [
        {
          "internalType": "address",
          "name": "to",
          "type": "address"
        },
        {
          "internalType": "uint256",
          "name": "ancientBatzId",
          "type": "uint256"
        }
      ],
      "name": "mintAncientBatz",
      "outputs": [],
      "stateMutability": "nonpayable",
      "type": "function"
    },
    {
      "inputs": [
        {
          "internalType": "string",
          "name": "newBaseUri",
          "type": "string"
        }
      ],
      "name": "setBaseURI",
      "outputs": [],
      "stateMutability": "nonpayable",
      "type": "function"
    },
    {
      "inputs": [
        {
          "internalType": "address",
          "name": "newWhitelistSigner",
          "type": "address"
        }
      ],
      "name": "setWhitelistSigner",
      "outputs": [],
      "stateMutability": "nonpayable",
      "type": "function"
    },
    {
      "inputs": [
        {
          "internalType": "address",
          "name": "newMinter",
          "type": "address"
        }
      ],
      "name": "setAncientBatzMinter",
      "outputs": [],
      "stateMutability": "nonpayable",
      "type": "function"
    },
    {
      "inputs": [
        {
          "internalType": "uint256",
          "name": "provenanceHash",
          "type": "uint256"
        }
      ],
      "name": "setProvenance",
      "outputs": [],
      "stateMutability": "nonpayable",
      "type": "function"
    },
    {
      "inputs": [
        {
          "internalType": "uint256",
          "name": "startTime",
          "type": "uint256"
        },
        {
          "internalType": "uint256",
          "name": "endTime",
          "type": "uint256"
        }
      ],
      "name": "configurePresale",
      "outputs": [],
      "stateMutability": "nonpayable",
      "type": "function"
    },
    {
      "inputs": [
        {
          "internalType": "uint256",
          "name": "startTime",
          "type": "uint256"
        },
        {
          "internalType": "uint256",
          "name": "bottomTime",
          "type": "uint256"
        },
        {
          "internalType": "uint256",
          "name": "stepInterval",
          "type": "uint256"
        },
        {
          "internalType": "uint256",
          "name": "startPrice",
          "type": "uint256"
        },
        {
          "internalType": "uint256",
          "name": "bottomPrice",
          "type": "uint256"
        },
        {
          "internalType": "uint256",
          "name": "priceStep",
          "type": "uint256"
        }
      ],
      "name": "configureDutchAuction",
      "outputs": [],
      "stateMutability": "nonpayable",
      "type": "function"
    }
  ],
  "bytecode": "0x600060105560e060405273adc6a7985036531c394b6df054666c51de29b9a960809081527376bf7b1e22c773754ebc608d92f71cc0b5d99d4b60a052738b8abe9cec13cf5050517816b2e95722e711818e60c0526200006390602090600362000984565b506040805160608101825260328152602d602082015260059181019190915262000092906021906003620009ee565b50348015620000a057600080fd5b5060405162005f6638038062005f66833981016040819052620000c39162000ae9565b6020805460408051828402810184019091528181529190828201828280156200011657602002820191906000526020600020905b81546001600160a01b03168152600190910190602001808311620000f7575b505050505060218054806020026020016040519081016040528092919081815260200182805480156200016957602002820191906000526020600020905b81548152602001906001019080831162000154575b505050505081816040518060400160405280601b81526020017f43727970746f4261747a206279204f7a7a79204f73626f75726e650000000000815250604051806040016040528060048152602001632120aa2d60e11b815250620001dd620001d7620006a460201b60201c565b620006a8565b8151620001f290600190602085019062000a31565b5080516200020890600290602084019062000a31565b50505080518251146200027d5760405162461bcd60e51b815260206004820152603260248201527f5061796d656e7453706c69747465723a2070617965657320616e6420736861726044820152710cae640d8cadccee8d040dad2e6dac2e8c6d60731b60648201526084015b60405180910390fd5b6000825111620002d05760405162461bcd60e51b815260206004820152601a60248201527f5061796d656e7453706c69747465723a206e6f20706179656573000000000000604482015260640162000274565b60005b82518110156200033c5762000327838281518110620002f657620002f662000bc5565b602002602001015183838151811062000313576200031362000bc5565b6020026020010151620006f860201b60201c565b80620003338162000bf1565b915050620002d3565b50509151600f55505080516200035a90601990602084019062000a31565b50601b8054336001600160a01b031990911617905560408051608080820183526361e897f082526361e9e970602080840191909152611f4083850152670138a388a43c00006060938401819052601380546001600160601b031916691f4061e9e97061e897f0179055601455835160e081018552600381526361e9f078818301526361ea28b881860152603c8185015267171ed22c53cd000092810183905267016345785d8a000060a0820181905266172e73f328d00060c0909201829052601580546001600160801b0319166c3c61ea28b861e9f078000000031790556016939093556017929092556018919091558251600280825292810184526000939092918301908036833701905050905073adc6a7985036531c394b6df054666c51de29b9a98160008151811062000494576200049462000bc5565b60200260200101906001600160a01b031690816001600160a01b0316815250507376bf7b1e22c773754ebc608d92f71cc0b5d99d4b81600181518110620004df57620004df62000bc5565b6001600160a01b0392909216602092830291909101820152604080516002808252606082018352600093919290918301908036833701905050905060468160008151811062000532576200053262000bc5565b602002602001018181525050601e8160018151811062000556576200055662000bc5565b6020026020010181815250508181604051620005729062000aae565b6200057f92919062000c0f565b604051809103906000f0801580156200059c573d6000803e3d6000fd5b50602280546001600160a01b0319166001600160a01b03929092169182179055620005ca906102ee620008e6565b5050604080518082018252600a81526921b93cb83a37a130ba3d60b11b6020918201528151808301835260018152603160f81b9082015281517f8b73c3c69bb8fe3d512ecc4cf759cc79239f7b179b0ffacaa9a75d522b39400f818301527f4cd623e634825d03c9e358bf0b908ce4eb74e3227158217072ec57b7fe69f654818401527fc89efdaa54c0f20c7adf612882df0950f5a951637e0307cdcb4c672f298b8bc660608201524660808201523060a0808301919091528351808303909101815260c09091019092528151910120601f555062000cef565b3390565b600080546001600160a01b038381166001600160a01b0319831681178455604051919092169283917f8be0079c531659141344cd1fd0a4f28419497f9722a3daafe3b4186f6b6457e09190a35050565b6001600160a01b038216620007655760405162461bcd60e51b815260206004820152602c60248201527f5061796d656e7453706c69747465723a206163636f756e74206973207468652060448201526b7a65726f206164647265737360a01b606482015260840162000274565b60008111620007b75760405162461bcd60e51b815260206004820152601d60248201527f5061796d656e7453706c69747465723a20736861726573206172652030000000604482015260640162000274565b6001600160a01b0382166000908152600a602052604090205415620008335760405162461bcd60e51b815260206004820152602b60248201527f5061796d656e7453706c69747465723a206163636f756e7420616c726561647960448201526a206861732073686172657360a81b606482015260840162000274565b600c8054600181019091557fdf6966c971051c3d54ec59162606531493a51404a002842f56009d7e5cf4a8c70180546001600160a01b0319166001600160a01b0384169081179091556000908152600a602052604090208190556008546200089d90829062000c97565b600855604080516001600160a01b0384168152602081018390527f40c340f65e17194d14ddddb073d3c9f888e3cb52b5aae0c6c7706b4fbc905fac910160405180910390a15050565b6127108111156200093a5760405162461bcd60e51b815260206004820152601a60248201527f45524332393831526f79616c746965733a20546f6f2068696768000000000000604482015260640162000274565b604080518082019091526001600160a01b0390921680835262ffffff909116602090920182905260078054600160a01b9093026001600160b81b0319909316909117919091179055565b828054828255906000526020600020908101928215620009dc579160200282015b82811115620009dc57825182546001600160a01b0319166001600160a01b03909116178255602090920191600190910190620009a5565b50620009ea92915062000abc565b5090565b828054828255906000526020600020908101928215620009dc579160200282015b82811115620009dc578251829060ff1690559160200191906001019062000a0f565b82805462000a3f9062000cb2565b90600052602060002090601f01602090048101928262000a635760008555620009dc565b82601f1062000a7e57805160ff1916838001178555620009dc565b82800160010185558215620009dc579182015b82811115620009dc57825182559160200191906001019062000a91565b61120b8062004d5b83390190565b5b80821115620009ea576000815560010162000abd565b634e487b7160e01b600052604160045260246000fd5b6000602080838503121562000afd57600080fd5b82516001600160401b038082111562000b1557600080fd5b818501915085601f83011262000b2a57600080fd5b81518181111562000b3f5762000b3f62000ad3565b604051601f8201601f19908116603f0116810190838211818310171562000b6a5762000b6a62000ad3565b81604052828152888684870101111562000b8357600080fd5b600093505b8284101562000ba7578484018601518185018701529285019262000b88565b8284111562000bb95760008684830101525b98975050505050505050565b634e487b7160e01b600052603260045260246000fd5b634e487b7160e01b600052601160045260246000fd5b600060001982141562000c085762000c0862000bdb565b5060010190565b604080825283519082018190526000906020906060840190828701845b8281101562000c535781516001600160a01b03168452928401929084019060010162000c2c565b5050508381038285015284518082528583019183019060005b8181101562000c8a5783518352928401929184019160010162000c6c565b5090979650505050505050565b6000821982111562000cad5762000cad62000bdb565b500190565b600181811c9082168062000cc757607f821691505b6020821081141562000ce957634e487b7160e01b600052602260045260246000fd5b50919050565b61405c8062000cff6000396000f3fe6080604052600436106103035760003560e01c8063715018a611610190578063cc47a40b116100dc578063e985e9c511610095578063ef81b4d41161006f578063ef81b4d414610a17578063f2fde38b14610a37578063fd88fa6914610a57578063ff1b655614610ac157600080fd5b8063e985e9c514610981578063ea66aeb3146109ca578063ec5ed89b146109f757600080fd5b8063cc47a40b146108ab578063ce7c2ac2146108cb578063ce9124f514610901578063d338143814610916578063d79779b214610936578063e33b7de31461096c57600080fd5b806395d89b4111610149578063a6c5846711610123578063a6c5846714610842578063b88d4fde14610858578063c0c8dd0714610878578063c87b56dd1461088b57600080fd5b806395d89b41146107d75780639852595c146107ec578063a22cb4651461082257600080fd5b8063715018a6146106bd578063755486b2146106d25780637bd07f8b146106f2578063853828b6146107845780638b83209b146107995780638da5cb5b146107b957600080fd5b80632a55205a1161024f5780634c00de82116102085780635aca1982116101e25780635aca1982146106535780636352211e146106685780636c0360eb1461068857806370a082311461069d57600080fd5b80634c00de82146105fe57806351c7115b1461061e57806355f804b31461063357600080fd5b80632a55205a146105115780633266e957146105505780633a98ef3914610563578063406072a91461057857806342842e0e146105be57806348b75044146105de57600080fd5b8063097fedd3116102bc5780631bf9f509116102965780631bf9f5091461049b5780631d3e946c146104bb57806323b872dd146104db5780632a3dd109146104fb57600080fd5b8063097fedd31461044557806318160ddd14610465578063191655871461047b57600080fd5b806301ffc9a714610351578063040ba9ea1461038657806306968310146103a957806306fdde03146103cb578063081812fc146103ed578063095ea7b31461042557600080fd5b3661034c577f6ef95f06320e7a25a04a175ca677b7052bdd97131872c2192525a629f51be77033604080516001600160a01b0390921682523460208301520160405180910390a1005b600080fd5b34801561035d57600080fd5b5061037161036c366004613840565b610ad7565b60405190151581526020015b60405180910390f35b34801561039257600080fd5b5061039b606381565b60405190815260200161037d565b3480156103b557600080fd5b506103c96103c436600461385d565b610ae8565b005b3480156103d757600080fd5b506103e0610ba3565b60405161037d91906138ce565b3480156103f957600080fd5b5061040d61040836600461385d565b610c35565b6040516001600160a01b03909116815260200161037d565b34801561043157600080fd5b506103c96104403660046138f6565b610cca565b34801561045157600080fd5b506103c9610460366004613922565b610de0565b34801561047157600080fd5b5061039b60105481565b34801561048757600080fd5b506103c9610496366004613965565b61104a565b3480156104a757600080fd5b506103c96104b6366004613965565b611178565b3480156104c757600080fd5b50601b5461040d906001600160a01b031681565b3480156104e757600080fd5b506103c96104f6366004613982565b611200565b34801561050757600080fd5b5061039b601d5481565b34801561051d57600080fd5b5061053161052c3660046139c3565b611231565b604080516001600160a01b03909316835260208301919091520161037d565b6103c961055e366004613a27565b611286565b34801561056f57600080fd5b5060085461039b565b34801561058457600080fd5b5061039b610593366004613a78565b6001600160a01b039182166000908152600e6020908152604080832093909416825291909152205490565b3480156105ca57600080fd5b506103c96105d9366004613982565b61161d565b3480156105ea57600080fd5b506103c96105f9366004613a78565b611638565b34801561060a57600080fd5b5060225461040d906001600160a01b031681565b34801561062a57600080fd5b5061039b611811565b34801561063f57600080fd5b506103c961064e366004613ab1565b6118f5565b34801561065f57600080fd5b506103c9611964565b34801561067457600080fd5b5061040d61068336600461385d565b611b2a565b34801561069457600080fd5b506103e0611ba1565b3480156106a957600080fd5b5061039b6106b8366004613965565b611c2f565b3480156106c957600080fd5b506103c9611cb6565b3480156106de57600080fd5b506103c96106ed3660046138f6565b611cec565b3480156106fe57600080fd5b5060155460165460175460185461073e9363ffffffff80821694600160201b8304821694600160401b8404831694600160601b9094049092169290919087565b6040805163ffffffff9889168152968816602088015294871694860194909452949091166060840152608083015260a082019290925260c081019190915260e00161037d565b34801561079057600080fd5b506103c9611e6d565b3480156107a557600080fd5b5061040d6107b436600461385d565b611ee4565b3480156107c557600080fd5b506000546001600160a01b031661040d565b3480156107e357600080fd5b506103e0611f14565b3480156107f857600080fd5b5061039b610807366004613965565b6001600160a01b03166000908152600b602052604090205490565b34801561082e57600080fd5b506103c961083d366004613b01565b611f23565b34801561084e57600080fd5b5061039b6125c281565b34801561086457600080fd5b506103c9610873366004613b45565b611f32565b6103c961088636600461385d565b611f6a565b34801561089757600080fd5b506103e06108a636600461385d565b6121a5565b3480156108b757600080fd5b506103c96108c63660046138f6565b612280565b3480156108d757600080fd5b5061039b6108e6366004613965565b6001600160a01b03166000908152600a602052604090205490565b34801561090d57600080fd5b5061039b606481565b34801561092257600080fd5b506103c9610931366004613965565b612312565b34801561094257600080fd5b5061039b610951366004613965565b6001600160a01b03166000908152600d602052604090205490565b34801561097857600080fd5b5060095461039b565b34801561098d57600080fd5b5061037161099c366004613a78565b6001600160a01b03918216600090815260066020908152604080832093909416825291909152205460ff1690565b3480156109d657600080fd5b506109ea6109e5366004613965565b61239a565b60405161037d9190613c25565b348015610a0357600080fd5b506103c9610a123660046139c3565b612458565b348015610a2357600080fd5b50601a5461040d906001600160a01b031681565b348015610a4357600080fd5b506103c9610a52366004613965565b612575565b348015610a6357600080fd5b50601354601454610a8f9163ffffffff80821692600160201b8304821692600160401b90049091169084565b60405161037d949392919063ffffffff9485168152928416602084015292166040820152606081019190915260800190565b348015610acd57600080fd5b5061039b601c5481565b6000610ae28261260d565b92915050565b6000546001600160a01b03163314610b1b5760405162461bcd60e51b8152600401610b1290613c69565b60405180910390fd5b601d5415610b6b5760405162461bcd60e51b815260206004820152601a60248201527f5374617274696e6720696e64657820616c7265616479207365740000000000006044820152606401610b12565b6040518181527f7a118106d7ec5624cae2261255cffcd06cc8e43e34e8b2506e4f25c7fd23cbb29060200160405180910390a1601c55565b606060018054610bb290613c9e565b80601f0160208091040260200160405190810160405280929190818152602001828054610bde90613c9e565b8015610c2b5780601f10610c0057610100808354040283529160200191610c2b565b820191906000526020600020905b815481529060010190602001808311610c0e57829003601f168201915b5050505050905090565b6000818152600360205260408120546001600160a01b0316610cae5760405162461bcd60e51b815260206004820152602c60248201527f4552433732313a20617070726f76656420717565727920666f72206e6f6e657860448201526b34b9ba32b73a103a37b5b2b760a11b6064820152608401610b12565b506000908152600560205260409020546001600160a01b031690565b6000610cd582611b2a565b9050806001600160a01b0316836001600160a01b03161415610d435760405162461bcd60e51b815260206004820152602160248201527f4552433732313a20617070726f76616c20746f2063757272656e74206f776e656044820152603960f91b6064820152608401610b12565b336001600160a01b0382161480610d5f5750610d5f813361099c565b610dd15760405162461bcd60e51b815260206004820152603860248201527f4552433732313a20617070726f76652063616c6c6572206973206e6f74206f7760448201527f6e6572206e6f7220617070726f76656420666f7220616c6c00000000000000006064820152608401610b12565b610ddb8383612632565b505050565b6000546001600160a01b03163314610e0a5760405162461bcd60e51b8152600401610b1290613c69565b6000610e15876126a0565b90506000610e22876126a0565b90506000610e2f876126a0565b60135490915063ffffffff808516600160201b909204161115610e645760405162461bcd60e51b8152600401610b1290613cd9565b8163ffffffff168363ffffffff1610610e8f5760405162461bcd60e51b8152600401610b1290613cd9565b86600010610ed15760405162461bcd60e51b815260206004820152600f60248201526e0c081cdd195c081a5b9d195c9d985b608a1b6044820152606401610b12565b858510610f165760405162461bcd60e51b8152602060048201526013602482015272496e76616c696420737461727420707269636560681b6044820152606401610b12565b84600010610f5d5760405162461bcd60e51b8152602060048201526014602482015273496e76616c696420626f74746f6d20707269636560601b6044820152606401610b12565b836000108015610f6c57508584105b610fad5760405162461bcd60e51b81526020600482015260126024820152710496e76616c696420707269636520737465760741b6044820152606401610b12565b601580546bffffffffffffffff000000001916600160201b63ffffffff868116919091026bffffffff0000000000000000191691909117600160401b858316021763ffffffff60601b1916600160601b918416919091021790556016869055601785905560188490556040517f585ef91acea44084cac26f5bbe4a675e850dd07762ebb27e9838544a38fa867190600090a1505050505050505050565b6001600160a01b0381166000908152600a602052604090205461107f5760405162461bcd60e51b8152600401610b1290613cff565b600061108a60095490565b6110949047613d5b565b905060006110c183836110bc866001600160a01b03166000908152600b602052604090205490565b612709565b9050806110e05760405162461bcd60e51b8152600401610b1290613d73565b6001600160a01b0383166000908152600b602052604081208054839290611108908490613d5b565b9250508190555080600960008282546111219190613d5b565b909155506111319050838261274f565b604080516001600160a01b0385168152602081018390527fdf20fd1e76bc69d672e4814fafb2c449bba3a5369d8359adf9e05e6fde87b056910160405180910390a1505050565b6000546001600160a01b031633146111a25760405162461bcd60e51b8152600401610b1290613c69565b6040516001600160a01b03821681527ffa58eecf7016f069d53d57b14c0b2a98c90ffe8deaec7b465b8618f850d2d7b59060200160405180910390a1601b80546001600160a01b0319166001600160a01b0392909216919091179055565b61120a3382612868565b6112265760405162461bcd60e51b8152600401610b1290613dbe565b610ddb83838361295e565b604080518082019091526007546001600160a01b038116808352600160a01b90910462ffffff16602083018190529091600091612710906112729086613e0f565b61127c9190613e44565b9150509250929050565b6040805160808101825260135463ffffffff808216808452600160201b830482166020850152600160401b909204169282019290925260145460608201529042108015906112dd5750806020015163ffffffff1642105b6113215760405162461bcd60e51b815260206004820152601560248201527450726573616c65206973206e6f742061637469766560581b6044820152606401610b12565b601a546001600160a01b03166113835760405162461bcd60e51b815260206004820152602160248201527f57686974656c697374207369676e657220686173206e6f74206265656e2073656044820152601d60fa1b6064820152608401610b12565b8281606001516113939190613e0f565b34146113d55760405162461bcd60e51b8152602060048201526011602482015270125b98dbdc9c9958dd081c185e5b595b9d607a1b6044820152606401610b12565b336000908152601e602052604090205482906113f2908590613d5b565b11156114365760405162461bcd60e51b8152602060048201526013602482015272135a5b9d081b1a5b5a5d08195e18d959591959606a1b6044820152606401610b12565b806040015163ffffffff168360105461144f9190613d5b565b11156114995760405162461bcd60e51b81526020600482015260196024820152784e6f7420656e6f756768204241545a2072656d61696e696e6760381b6044820152606401610b12565b601f54604080517f62b1d609957efd7198a66f841063387013c1f07f57cbb6ae3cd625ddd9f9ebab6020820152339181019190915260608101849052600091906080016040516020818303038152906040528051906020012060405160200161151992919061190160f01b81526002810192909252602282015260420190565b604051602081830303815290604052805190602001209050600061157587878080601f0160208091040260200160405190810160405280939291908181526020018383808284376000920191909152508693925050612b099050565b90506001600160a01b0381161580159061159c5750601a546001600160a01b038281169116145b6115dc5760405162461bcd60e51b8152602060048201526011602482015270496e76616c6964207369676e617475726560781b6044820152606401610b12565b336000908152601e60205260409020546115f7908690613d5b565b336000818152601e60205260409020919091556116149086612b25565b50505050505050565b610ddb83838360405180602001604052806000815250611f32565b6001600160a01b0381166000908152600a602052604090205461166d5760405162461bcd60e51b8152600401610b1290613cff565b6001600160a01b0382166000908152600d60205260408120546040516370a0823160e01b81523060048201526001600160a01b038516906370a0823190602401602060405180830381865afa1580156116ca573d6000803e3d6000fd5b505050506040513d601f19601f820116820180604052508101906116ee9190613e58565b6116f89190613d5b565b9050600061173183836110bc87876001600160a01b039182166000908152600e6020908152604080832093909416825291909152205490565b9050806117505760405162461bcd60e51b8152600401610b1290613d73565b6001600160a01b038085166000908152600e6020908152604080832093871683529290529081208054839290611787908490613d5b565b90915550506001600160a01b0384166000908152600d6020526040812080548392906117b4908490613d5b565b909155506117c59050848483612b64565b604080516001600160a01b038581168252602082018490528616917f3be5b7a71e84ed12875d241991c70855ac5817d847039e17a9d895c1ceb0f18a910160405180910390a250505050565b6040805160e08101825260155463ffffffff8082168352600160201b8204811660208401819052600160401b8304821694840194909452600160601b909104166060820152601654608082015260175460a082015260185460c08201526000914290811015611884575060800151919050565b816040015163ffffffff16811061189f575060a00151919050565b6000826060015163ffffffff16836020015163ffffffff16836118c29190613e71565b6118cc9190613e44565b90508260c00151816118de9190613e0f565b83608001516118ed9190613e71565b935050505090565b6000546001600160a01b0316331461191f5760405162461bcd60e51b8152600401610b1290613c69565b7f24a9152dc695ecc801ad580886331ee12d7aac0fa2ae341a5ae3c2ccae36cb4f8282604051611950929190613e88565b60405180910390a1610ddb6019838361379a565b6000546001600160a01b0316331461198e5760405162461bcd60e51b8152600401610b1290613c69565b601c546119dd5760405162461bcd60e51b815260206004820152601760248201527f50726f76656e616e63652068617368206e6f74207365740000000000000000006044820152606401610b12565b601d5415611a215760405162461bcd60e51b8152602060048201526011602482015270125b99195e08185b1c9958591e481cd95d607a1b6044820152606401610b12565b601554600160201b900463ffffffff16421015611a805760405162461bcd60e51b815260206004820152601d60248201527f546f6f206561726c7920746f20726f6c6c20737461727420696e6465780000006044820152606401610b12565b6000611a8d600143613e71565b60408051914060208301526bffffffffffffffffffffffff194160601b169082015244605482015242607482015260940160408051601f1981840301815291905280516020909101209050611ae46125c282613eb7565b611aef906001613d5b565b601d8190556040519081527fca6fb0afaccdd6d4e6bae677f2228557803ae36f831e27606d4f4ccffc4286599060200160405180910390a150565b6000818152600360205260408120546001600160a01b031680610ae25760405162461bcd60e51b815260206004820152602960248201527f4552433732313a206f776e657220717565727920666f72206e6f6e657869737460448201526832b73a103a37b5b2b760b91b6064820152608401610b12565b60198054611bae90613c9e565b80601f0160208091040260200160405190810160405280929190818152602001828054611bda90613c9e565b8015611c275780601f10611bfc57610100808354040283529160200191611c27565b820191906000526020600020905b815481529060010190602001808311611c0a57829003601f168201915b505050505081565b60006001600160a01b038216611c9a5760405162461bcd60e51b815260206004820152602a60248201527f4552433732313a2062616c616e636520717565727920666f7220746865207a65604482015269726f206164647265737360b01b6064820152608401610b12565b506001600160a01b031660009081526004602052604090205490565b6000546001600160a01b03163314611ce05760405162461bcd60e51b8152600401610b1290613c69565b611cea6000612bb6565b565b601b546001600160a01b0316611d445760405162461bcd60e51b815260206004820152601a60248201527f416e6369656e744261747a206d696e746572206e6f74207365740000000000006044820152606401610b12565b601b546001600160a01b03163314611dac5760405162461bcd60e51b815260206004820152602560248201527f4d75737420626520617574686f72697a656420416e6369656e744261747a206d60448201526434b73a32b960d91b6064820152608401610b12565b600081118015611dbd575060638111155b611e025760405162461bcd60e51b8152602060048201526016602482015275125b9d985b1a5908105b98da595b9d10985d1e88125960521b6044820152606401610b12565b6000611e10826125c2613d5b565b905081836001600160a01b03167ffa1f2f7c8c968670bcb031f074110e4e82778c4a83fe1c872e4ccc2e5371f33a60405160405180910390a3611e538382612c06565b60108054906000611e6383613ecb565b9190505550505050565b60004711611eb65760405162461bcd60e51b81526020600482015260166024820152754e6f2062616c616e636520746f20776974686472617760501b6044820152606401610b12565b60005b600f54811015611ee157611ecf61049682611ee4565b80611ed981613ecb565b915050611eb9565b50565b6000600c8281548110611ef957611ef9613ee6565b6000918252602090912001546001600160a01b031692915050565b606060028054610bb290613c9e565b611f2e338383612c20565b5050565b611f3c3383612868565b611f585760405162461bcd60e51b8152600401610b1290613dbe565b611f6484848484612cef565b50505050565b333b158015611f7857503332145b611fc45760405162461bcd60e51b815260206004820152601960248201527f436f6e74726163742062757973206e6f7420616c6c6f776564000000000000006044820152606401610b12565b6040805160e08101825260155463ffffffff8082168352600160201b820481166020840152600160401b8204811693830193909352600160601b90049091166060820152601654608082015260175460a082015260185460c08201526010546125c290612032908490613d5b565b111561207c5760405162461bcd60e51b81526020600482015260196024820152784e6f7420656e6f756768204241545a2072656d61696e696e6760381b6044820152606401610b12565b806020015163ffffffff164210156120cb5760405162461bcd60e51b815260206004820152601260248201527153616c65206973206e6f742061637469766560701b6044820152606401610b12565b805163ffffffff168211156121225760405162461bcd60e51b815260206004820152601a60248201527f5472616e73616374696f6e206c696d69742065786365656465640000000000006044820152606401610b12565b60008261212d611811565b6121379190613e0f565b9050803410156121805760405162461bcd60e51b8152602060048201526014602482015273125b9cdd59999a58da595b9d081c185e5b595b9d60621b6044820152606401610b12565b8034111561219b5761219b336121968334613e71565b61274f565b610ddb3384612b25565b6000818152600360205260409020546060906001600160a01b03166122245760405162461bcd60e51b815260206004820152602f60248201527f4552433732314d657461646174613a2055524920717565727920666f72206e6f60448201526e3732bc34b9ba32b73a103a37b5b2b760891b6064820152608401610b12565b600061222e612d22565b9050600081511161224e5760405180602001604052806000815250612279565b8061225884612d31565b604051602001612269929190613efc565b6040516020818303038152906040525b9392505050565b6000546001600160a01b031633146122aa5760405162461bcd60e51b8152600401610b1290613c69565b6064816010546122ba9190613d5b565b11156123085760405162461bcd60e51b815260206004820152601b60248201527f45786365656473206f776e65722072657365727665206c696d697400000000006044820152606401610b12565b611f2e8282612b25565b6000546001600160a01b0316331461233c5760405162461bcd60e51b8152600401610b1290613c69565b6040516001600160a01b03821681527f0411c872a35ac01013d258ad2fe1ffd003847123a878624b993c256fd75d1d789060200160405180910390a1601a80546001600160a01b0319166001600160a01b0392909216919091179055565b606060006123a783611c2f565b905060008167ffffffffffffffff8111156123c4576123c4613b2f565b6040519080825280602002602001820160405280156123ed578160200160208202803683370190505b50905060005b82811015612450576001600160a01b0385166000908152601160209081526040808320848452909152902054825183908390811061243357612433613ee6565b60209081029190910101528061244881613ecb565b9150506123f3565b509392505050565b6000546001600160a01b031633146124825760405162461bcd60e51b8152600401610b1290613c69565b600061248d836126a0565b9050600061249a836126a0565b90508163ffffffff166000106124c25760405162461bcd60e51b8152600401610b1290613cd9565b8063ffffffff168263ffffffff16106124ed5760405162461bcd60e51b8152600401610b1290613cd9565b60155463ffffffff600160201b909104811690821611156125205760405162461bcd60e51b8152600401610b1290613cd9565b6013805463ffffffff838116600160201b0267ffffffffffffffff19909216908516171790556040517f78416bc810005a62b38a156c2241d33b50a7d83e064ca20d330c528f926cfa2f90600090a150505050565b6000546001600160a01b0316331461259f5760405162461bcd60e51b8152600401610b1290613c69565b6001600160a01b0381166126045760405162461bcd60e51b815260206004820152602660248201527f4f776e61626c653a206e6577206f776e657220697320746865207a65726f206160448201526564647265737360d01b6064820152608401610b12565b611ee181612bb6565b60006001600160e01b0319821663152a902d60e11b1480610ae25750610ae282612e2f565b600081815260056020526040902080546001600160a01b0319166001600160a01b038416908117909155819061266782611b2a565b6001600160a01b03167f8c5be1e5ebec7d5bd14f71427d1e84f3dd0314c0f7b2291e5b200ac8c7c3b92560405160405180910390a45050565b600063ffffffff8211156127055760405162461bcd60e51b815260206004820152602660248201527f53616665436173743a2076616c756520646f65736e27742066697420696e203360448201526532206269747360d01b6064820152608401610b12565b5090565b6008546001600160a01b0384166000908152600a6020526040812054909183916127339086613e0f565b61273d9190613e44565b6127479190613e71565b949350505050565b8047101561279f5760405162461bcd60e51b815260206004820152601d60248201527f416464726573733a20696e73756666696369656e742062616c616e63650000006044820152606401610b12565b6000826001600160a01b03168260405160006040518083038185875af1925050503d80600081146127ec576040519150601f19603f3d011682016040523d82523d6000602084013e6127f1565b606091505b5050905080610ddb5760405162461bcd60e51b815260206004820152603a60248201527f416464726573733a20756e61626c6520746f2073656e642076616c75652c207260448201527f6563697069656e74206d617920686176652072657665727465640000000000006064820152608401610b12565b6000818152600360205260408120546001600160a01b03166128e15760405162461bcd60e51b815260206004820152602c60248201527f4552433732313a206f70657261746f7220717565727920666f72206e6f6e657860448201526b34b9ba32b73a103a37b5b2b760a11b6064820152608401610b12565b60006128ec83611b2a565b9050806001600160a01b0316846001600160a01b031614806129275750836001600160a01b031661291c84610c35565b6001600160a01b0316145b8061274757506001600160a01b0380821660009081526006602090815260408083209388168352929052205460ff16949350505050565b826001600160a01b031661297182611b2a565b6001600160a01b0316146129d95760405162461bcd60e51b815260206004820152602960248201527f4552433732313a207472616e73666572206f6620746f6b656e2074686174206960448201526839903737ba1037bbb760b91b6064820152608401610b12565b6001600160a01b038216612a3b5760405162461bcd60e51b8152602060048201526024808201527f4552433732313a207472616e7366657220746f20746865207a65726f206164646044820152637265737360e01b6064820152608401610b12565b612a46838383612e7f565b612a51600082612632565b6001600160a01b0383166000908152600460205260408120805460019290612a7a908490613e71565b90915550506001600160a01b0382166000908152600460205260408120805460019290612aa8908490613d5b565b909155505060008181526003602052604080822080546001600160a01b0319166001600160a01b0386811691821790925591518493918716917fddf252ad1be2c89b69c2b068fc378daa952ba7f163c4a11628f55a4df523b3ef91a4505050565b6000806000612b188585612eb1565b9150915061245081612f21565b60105460005b82811015612b5c57612b3e600183613d5b565b9150612b4a8483612c06565b80612b5481613ecb565b915050612b2b565b506010555050565b604080516001600160a01b038416602482015260448082018490528251808303909101815260649091019091526020810180516001600160e01b031663a9059cbb60e01b179052610ddb9084906130dc565b600080546001600160a01b038381166001600160a01b0319831681178455604051919092169283917f8be0079c531659141344cd1fd0a4f28419497f9722a3daafe3b4186f6b6457e09190a35050565b611f2e8282604051806020016040528060008152506131ae565b816001600160a01b0316836001600160a01b03161415612c825760405162461bcd60e51b815260206004820152601960248201527f4552433732313a20617070726f766520746f2063616c6c6572000000000000006044820152606401610b12565b6001600160a01b03838116600081815260066020908152604080832094871680845294825291829020805460ff191686151590811790915591519182527f17307eab39ab6107e8899845ad3d59bd9653f200f220920489ca2b5937696c31910160405180910390a3505050565b612cfa84848461295e565b612d06848484846131e1565b611f645760405162461bcd60e51b8152600401610b1290613f2b565b606060198054610bb290613c9e565b606081612d555750506040805180820190915260018152600360fc1b602082015290565b8160005b8115612d7f5780612d6981613ecb565b9150612d789050600a83613e44565b9150612d59565b60008167ffffffffffffffff811115612d9a57612d9a613b2f565b6040519080825280601f01601f191660200182016040528015612dc4576020820181803683370190505b5090505b841561274757612dd9600183613e71565b9150612de6600a86613eb7565b612df1906030613d5b565b60f81b818381518110612e0657612e06613ee6565b60200101906001600160f81b031916908160001a905350612e28600a86613e44565b9450612dc8565b60006001600160e01b031982166380ac58cd60e01b1480612e6057506001600160e01b03198216635b5e139f60e01b145b80610ae257506301ffc9a760e01b6001600160e01b0319831614610ae2565b6001600160a01b03831615612e9857612e9883826132df565b6001600160a01b03821615610ddb57610ddb828261337c565b600080825160411415612ee85760208301516040840151606085015160001a612edc878285856133c0565b94509450505050612f1a565b825160401415612f125760208301516040840151612f078683836134ad565b935093505050612f1a565b506000905060025b9250929050565b6000816004811115612f3557612f35613f7d565b1415612f3e5750565b6001816004811115612f5257612f52613f7d565b1415612fa05760405162461bcd60e51b815260206004820152601860248201527f45434453413a20696e76616c6964207369676e617475726500000000000000006044820152606401610b12565b6002816004811115612fb457612fb4613f7d565b14156130025760405162461bcd60e51b815260206004820152601f60248201527f45434453413a20696e76616c6964207369676e6174757265206c656e677468006044820152606401610b12565b600381600481111561301657613016613f7d565b141561306f5760405162461bcd60e51b815260206004820152602260248201527f45434453413a20696e76616c6964207369676e6174757265202773272076616c604482015261756560f01b6064820152608401610b12565b600481600481111561308357613083613f7d565b1415611ee15760405162461bcd60e51b815260206004820152602260248201527f45434453413a20696e76616c6964207369676e6174757265202776272076616c604482015261756560f01b6064820152608401610b12565b6000613131826040518060400160405280602081526020017f5361666545524332303a206c6f772d6c6576656c2063616c6c206661696c6564815250856001600160a01b03166134dc9092919063ffffffff16565b805190915015610ddb578080602001905181019061314f9190613f93565b610ddb5760405162461bcd60e51b815260206004820152602a60248201527f5361666545524332303a204552433230206f7065726174696f6e20646964206e6044820152691bdd081cdd58d8d9595960b21b6064820152608401610b12565b6131b883836134eb565b6131c560008484846131e1565b610ddb5760405162461bcd60e51b8152600401610b1290613f2b565b60006001600160a01b0384163b156132d457604051630a85bd0160e11b81526001600160a01b0385169063150b7a0290613225903390899088908890600401613fb0565b6020604051808303816000875af1925050508015613260575060408051601f3d908101601f1916820190925261325d91810190613fed565b60015b6132ba573d80801561328e576040519150601f19603f3d011682016040523d82523d6000602084013e613293565b606091505b5080516132b25760405162461bcd60e51b8152600401610b1290613f2b565b805181602001fd5b6001600160e01b031916630a85bd0160e11b149050612747565b506001949350505050565b600060016132ec84611c2f565b6132f69190613e71565b600083815260126020526040902054909150808214613349576001600160a01b03841660009081526011602090815260408083208584528252808320548484528184208190558352601290915290208190555b5060009182526012602090815260408084208490556001600160a01b039094168352601181528383209183525290812055565b600061338783611c2f565b6001600160a01b039093166000908152601160209081526040808320868452825280832085905593825260129052919091209190915550565b6000807f7fffffffffffffffffffffffffffffff5d576e7357a4501ddfe92f46681b20a08311156133f757506000905060036134a4565b8460ff16601b1415801561340f57508460ff16601c14155b1561342057506000905060046134a4565b6040805160008082526020820180845289905260ff881692820192909252606081018690526080810185905260019060a0016020604051602081039080840390855afa158015613474573d6000803e3d6000fd5b5050604051601f1901519150506001600160a01b03811661349d576000600192509250506134a4565b9150600090505b94509492505050565b6000806001600160ff1b03831660ff84901c601b016134ce878288856133c0565b935093505050935093915050565b60606127478484600085613639565b6001600160a01b0382166135415760405162461bcd60e51b815260206004820181905260248201527f4552433732313a206d696e7420746f20746865207a65726f20616464726573736044820152606401610b12565b6000818152600360205260409020546001600160a01b0316156135a65760405162461bcd60e51b815260206004820152601c60248201527f4552433732313a20746f6b656e20616c7265616479206d696e746564000000006044820152606401610b12565b6135b260008383612e7f565b6001600160a01b03821660009081526004602052604081208054600192906135db908490613d5b565b909155505060008181526003602052604080822080546001600160a01b0319166001600160a01b03861690811790915590518392907fddf252ad1be2c89b69c2b068fc378daa952ba7f163c4a11628f55a4df523b3ef908290a45050565b60608247101561369a5760405162461bcd60e51b815260206004820152602660248201527f416464726573733a20696e73756666696369656e742062616c616e636520666f6044820152651c8818d85b1b60d21b6064820152608401610b12565b843b6136e85760405162461bcd60e51b815260206004820152601d60248201527f416464726573733a2063616c6c20746f206e6f6e2d636f6e74726163740000006044820152606401610b12565b600080866001600160a01b03168587604051613704919061400a565b60006040518083038185875af1925050503d8060008114613741576040519150601f19603f3d011682016040523d82523d6000602084013e613746565b606091505b5091509150613756828286613761565b979650505050505050565b60608315613770575081612279565b8251156137805782518084602001fd5b8160405162461bcd60e51b8152600401610b1291906138ce565b8280546137a690613c9e565b90600052602060002090601f0160209004810192826137c8576000855561380e565b82601f106137e15782800160ff1982351617855561380e565b8280016001018555821561380e579182015b8281111561380e5782358255916020019190600101906137f3565b506127059291505b808211156127055760008155600101613816565b6001600160e01b031981168114611ee157600080fd5b60006020828403121561385257600080fd5b81356122798161382a565b60006020828403121561386f57600080fd5b5035919050565b60005b83811015613891578181015183820152602001613879565b83811115611f645750506000910152565b600081518084526138ba816020860160208601613876565b601f01601f19169290920160200192915050565b60208152600061227960208301846138a2565b6001600160a01b0381168114611ee157600080fd5b6000806040838503121561390957600080fd5b8235613914816138e1565b946020939093013593505050565b60008060008060008060c0878903121561393b57600080fd5b505084359660208601359650604086013595606081013595506080810135945060a0013592509050565b60006020828403121561397757600080fd5b8135612279816138e1565b60008060006060848603121561399757600080fd5b83356139a2816138e1565b925060208401356139b2816138e1565b929592945050506040919091013590565b600080604083850312156139d657600080fd5b50508035926020909101359150565b60008083601f8401126139f757600080fd5b50813567ffffffffffffffff811115613a0f57600080fd5b602083019150836020828501011115612f1a57600080fd5b60008060008060608587031215613a3d57600080fd5b843567ffffffffffffffff811115613a5457600080fd5b613a60878288016139e5565b90989097506020870135966040013595509350505050565b60008060408385031215613a8b57600080fd5b8235613a96816138e1565b91506020830135613aa6816138e1565b809150509250929050565b60008060208385031215613ac457600080fd5b823567ffffffffffffffff811115613adb57600080fd5b613ae7858286016139e5565b90969095509350505050565b8015158114611ee157600080fd5b60008060408385031215613b1457600080fd5b8235613b1f816138e1565b91506020830135613aa681613af3565b634e487b7160e01b600052604160045260246000fd5b60008060008060808587031215613b5b57600080fd5b8435613b66816138e1565b93506020850135613b76816138e1565b925060408501359150606085013567ffffffffffffffff80821115613b9a57600080fd5b818701915087601f830112613bae57600080fd5b813581811115613bc057613bc0613b2f565b604051601f8201601f19908116603f01168101908382118183101715613be857613be8613b2f565b816040528281528a6020848701011115613c0157600080fd5b82602086016020830137600060208483010152809550505050505092959194509250565b6020808252825182820181905260009190848201906040850190845b81811015613c5d57835183529284019291840191600101613c41565b50909695505050505050565b6020808252818101527f4f776e61626c653a2063616c6c6572206973206e6f7420746865206f776e6572604082015260600190565b600181811c90821680613cb257607f821691505b60208210811415613cd357634e487b7160e01b600052602260045260246000fd5b50919050565b6020808252600c908201526b496e76616c69642074696d6560a01b604082015260600190565b60208082526026908201527f5061796d656e7453706c69747465723a206163636f756e7420686173206e6f2060408201526573686172657360d01b606082015260800190565b634e487b7160e01b600052601160045260246000fd5b60008219821115613d6e57613d6e613d45565b500190565b6020808252602b908201527f5061796d656e7453706c69747465723a206163636f756e74206973206e6f742060408201526a191d59481c185e5b595b9d60aa1b606082015260800190565b60208082526031908201527f4552433732313a207472616e736665722063616c6c6572206973206e6f74206f6040820152701ddb995c881b9bdc88185c1c1c9bdd9959607a1b606082015260800190565b6000816000190483118215151615613e2957613e29613d45565b500290565b634e487b7160e01b600052601260045260246000fd5b600082613e5357613e53613e2e565b500490565b600060208284031215613e6a57600080fd5b5051919050565b600082821015613e8357613e83613d45565b500390565b60208152816020820152818360408301376000818301604090810191909152601f909201601f19160101919050565b600082613ec657613ec6613e2e565b500690565b6000600019821415613edf57613edf613d45565b5060010190565b634e487b7160e01b600052603260045260246000fd5b60008351613f0e818460208801613876565b835190830190613f22818360208801613876565b01949350505050565b60208082526032908201527f4552433732313a207472616e7366657220746f206e6f6e20455243373231526560408201527131b2b4bb32b91034b6b83632b6b2b73a32b960711b606082015260800190565b634e487b7160e01b600052602160045260246000fd5b600060208284031215613fa557600080fd5b815161227981613af3565b6001600160a01b0385811682528416602082015260408101839052608060608201819052600090613fe3908301846138a2565b9695505050505050565b600060208284031215613fff57600080fd5b81516122798161382a565b6000825161401c818460208701613876565b919091019291505056fea2646970667358221220a35e783027db0d27f524a128e518c086e9c0623a19136f1318a2b68a194a2cf664736f6c634300080b003360806040526040516200120b3803806200120b833981016040819052620000269162000437565b818180518251146200009a5760405162461bcd60e51b815260206004820152603260248201527f5061796d656e7453706c69747465723a2070617965657320616e6420736861726044820152710cae640d8cadccee8d040dad2e6dac2e8c6d60731b60648201526084015b60405180910390fd5b6000825111620000ed5760405162461bcd60e51b815260206004820152601a60248201527f5061796d656e7453706c69747465723a206e6f20706179656573000000000000604482015260640162000091565b60005b825181101562000159576200014483828151811062000113576200011362000515565b602002602001015183838151811062000130576200013062000515565b60200260200101516200016960201b60201c565b80620001508162000541565b915050620000f0565b50509151600755506200057a9050565b6001600160a01b038216620001d65760405162461bcd60e51b815260206004820152602c60248201527f5061796d656e7453706c69747465723a206163636f756e74206973207468652060448201526b7a65726f206164647265737360a01b606482015260840162000091565b60008111620002285760405162461bcd60e51b815260206004820152601d60248201527f5061796d656e7453706c69747465723a20736861726573206172652030000000604482015260640162000091565b6001600160a01b03821660009081526002602052604090205415620002a45760405162461bcd60e51b815260206004820152602b60248201527f5061796d656e7453706c69747465723a206163636f756e7420616c726561647960448201526a206861732073686172657360a81b606482015260840162000091565b60048054600181019091557f8a35acfbc15ff81a39ae7d344fd709f28e8600b4aa8c65c6b64bfe7fe36bd19b0180546001600160a01b0319166001600160a01b0384169081179091556000908152600260205260408120829055546200030c9082906200055f565b600055604080516001600160a01b0384168152602081018390527f40c340f65e17194d14ddddb073d3c9f888e3cb52b5aae0c6c7706b4fbc905fac910160405180910390a15050565b634e487b7160e01b600052604160045260246000fd5b604051601f8201601f191681016001600160401b038111828210171562000396576200039662000355565b604052919050565b60006001600160401b03821115620003ba57620003ba62000355565b5060051b60200190565b600082601f830112620003d657600080fd5b81516020620003ef620003e9836200039e565b6200036b565b82815260059290921b840181019181810190868411156200040f57600080fd5b8286015b848110156200042c578051835291830191830162000413565b509695505050505050565b600080604083850312156200044b57600080fd5b82516001600160401b03808211156200046357600080fd5b818501915085601f8301126200047857600080fd5b815160206200048b620003e9836200039e565b82815260059290921b84018101918181019089841115620004ab57600080fd5b948201945b83861015620004e25785516001600160a01b0381168114620004d25760008081fd5b82529482019490820190620004b0565b91880151919650909350505080821115620004fc57600080fd5b506200050b85828601620003c4565b9150509250929050565b634e487b7160e01b600052603260045260246000fd5b634e487b7160e01b600052601160045260246000fd5b60006000198214156200055857620005586200052b565b5060010190565b600082198211156200057557620005756200052b565b500190565b610c81806200058a6000396000f3fe6080604052600436106100955760003560e01c80638b83209b116100595780638b83209b146101a45780639852595c146101dc578063ce7c2ac214610212578063d79779b214610248578063e33b7de31461027e57600080fd5b806319165587146100e35780633a98ef3914610105578063406072a91461012957806348b750441461016f578063853828b61461018f57600080fd5b366100de577f6ef95f06320e7a25a04a175ca677b7052bdd97131872c2192525a629f51be77033604080516001600160a01b0390921682523460208301520160405180910390a1005b600080fd5b3480156100ef57600080fd5b506101036100fe3660046109da565b610293565b005b34801561011157600080fd5b506000545b6040519081526020015b60405180910390f35b34801561013557600080fd5b506101166101443660046109f7565b6001600160a01b03918216600090815260066020908152604080832093909416825291909152205490565b34801561017b57600080fd5b5061010361018a3660046109f7565b6103ca565b34801561019b57600080fd5b506101036105a3565b3480156101b057600080fd5b506101c46101bf366004610a30565b61061a565b6040516001600160a01b039091168152602001610120565b3480156101e857600080fd5b506101166101f73660046109da565b6001600160a01b031660009081526003602052604090205490565b34801561021e57600080fd5b5061011661022d3660046109da565b6001600160a01b031660009081526002602052604090205490565b34801561025457600080fd5b506101166102633660046109da565b6001600160a01b031660009081526005602052604090205490565b34801561028a57600080fd5b50600154610116565b6001600160a01b0381166000908152600260205260409020546102d15760405162461bcd60e51b81526004016102c890610a49565b60405180910390fd5b60006102dc60015490565b6102e69047610aa5565b90506000610313838361030e866001600160a01b031660009081526003602052604090205490565b61064a565b9050806103325760405162461bcd60e51b81526004016102c890610abd565b6001600160a01b0383166000908152600360205260408120805483929061035a908490610aa5565b9250508190555080600160008282546103739190610aa5565b909155506103839050838261068f565b604080516001600160a01b0385168152602081018390527fdf20fd1e76bc69d672e4814fafb2c449bba3a5369d8359adf9e05e6fde87b056910160405180910390a1505050565b6001600160a01b0381166000908152600260205260409020546103ff5760405162461bcd60e51b81526004016102c890610a49565b6001600160a01b0382166000908152600560205260408120546040516370a0823160e01b81523060048201526001600160a01b038516906370a0823190602401602060405180830381865afa15801561045c573d6000803e3d6000fd5b505050506040513d601f19601f820116820180604052508101906104809190610b08565b61048a9190610aa5565b905060006104c3838361030e87876001600160a01b03918216600090815260066020908152604080832093909416825291909152205490565b9050806104e25760405162461bcd60e51b81526004016102c890610abd565b6001600160a01b03808516600090815260066020908152604080832093871683529290529081208054839290610519908490610aa5565b90915550506001600160a01b03841660009081526005602052604081208054839290610546908490610aa5565b9091555061055790508484836107ad565b604080516001600160a01b038581168252602082018490528616917f3be5b7a71e84ed12875d241991c70855ac5817d847039e17a9d895c1ceb0f18a910160405180910390a250505050565b600047116105ec5760405162461bcd60e51b81526020600482015260166024820152754e6f2062616c616e636520746f20776974686472617760501b60448201526064016102c8565b60005b600754811015610617576106056100fe8261061a565b8061060f81610b21565b9150506105ef565b50565b60006004828154811061062f5761062f610b3c565b6000918252602090912001546001600160a01b031692915050565b600080546001600160a01b0385168252600260205260408220548391906106719086610b52565b61067b9190610b71565b6106859190610b93565b90505b9392505050565b804710156106df5760405162461bcd60e51b815260206004820152601d60248201527f416464726573733a20696e73756666696369656e742062616c616e636500000060448201526064016102c8565b6000826001600160a01b03168260405160006040518083038185875af1925050503d806000811461072c576040519150601f19603f3d011682016040523d82523d6000602084013e610731565b606091505b50509050806107a85760405162461bcd60e51b815260206004820152603a60248201527f416464726573733a20756e61626c6520746f2073656e642076616c75652c207260448201527f6563697069656e74206d6179206861766520726576657274656400000000000060648201526084016102c8565b505050565b604080516001600160a01b03848116602483015260448083018590528351808403909101815260649092018352602080830180516001600160e01b031663a9059cbb60e01b17905283518085019094528084527f5361666545524332303a206c6f772d6c6576656c2063616c6c206661696c6564908401526107a89286929160009161083d9185169084906108ba565b8051909150156107a8578080602001905181019061085b9190610baa565b6107a85760405162461bcd60e51b815260206004820152602a60248201527f5361666545524332303a204552433230206f7065726174696f6e20646964206e6044820152691bdd081cdd58d8d9595960b21b60648201526084016102c8565b6060610685848460008585843b6109135760405162461bcd60e51b815260206004820152601d60248201527f416464726573733a2063616c6c20746f206e6f6e2d636f6e747261637400000060448201526064016102c8565b600080866001600160a01b0316858760405161092f9190610bfc565b60006040518083038185875af1925050503d806000811461096c576040519150601f19603f3d011682016040523d82523d6000602084013e610971565b606091505b509150915061098182828661098c565b979650505050505050565b6060831561099b575081610688565b8251156109ab5782518084602001fd5b8160405162461bcd60e51b81526004016102c89190610c18565b6001600160a01b038116811461061757600080fd5b6000602082840312156109ec57600080fd5b8135610688816109c5565b60008060408385031215610a0a57600080fd5b8235610a15816109c5565b91506020830135610a25816109c5565b809150509250929050565b600060208284031215610a4257600080fd5b5035919050565b60208082526026908201527f5061796d656e7453706c69747465723a206163636f756e7420686173206e6f2060408201526573686172657360d01b606082015260800190565b634e487b7160e01b600052601160045260246000fd5b60008219821115610ab857610ab8610a8f565b500190565b6020808252602b908201527f5061796d656e7453706c69747465723a206163636f756e74206973206e6f742060408201526a191d59481c185e5b595b9d60aa1b606082015260800190565b600060208284031215610b1a57600080fd5b5051919050565b6000600019821415610b3557610b35610a8f565b5060010190565b634e487b7160e01b600052603260045260246000fd5b6000816000190483118215151615610b6c57610b6c610a8f565b500290565b600082610b8e57634e487b7160e01b600052601260045260246000fd5b500490565b600082821015610ba557610ba5610a8f565b500390565b600060208284031215610bbc57600080fd5b8151801515811461068857600080fd5b60005b83811015610be7578181015183820152602001610bcf565b83811115610bf6576000848401525b50505050565b60008251610c0e818460208701610bcc565b9190910192915050565b6020815260008251806020840152610c37816040850160208701610bcc565b601f01601f1916919091016040019291505056fea2646970667358221220ed0fe1e9a4099db382460bf3a3bdff8d22b8ea1472ba059f52d67d7537cbcbc864736f6c634300080b0033",
  "immutableReferences": {},
  "source": "// SPDX-License-Identifier: MIT\r\npragma solidity >=0.4.22 <0.9.0;\r\n\r\nimport \"@openzeppelin/contracts/access/Ownable.sol\";\r\nimport \"@openzeppelin/contracts/utils/Address.sol\";\r\nimport \"@openzeppelin/contracts/utils/cryptography/ECDSA.sol\";\r\nimport \"@openzeppelin/contracts/utils/math/SafeCast.sol\";\r\nimport \"@openzeppelin/contracts/token/ERC721/ERC721.sol\";\r\nimport \"./SutterTreasury.sol\";\r\nimport \"./ERC2981.sol\";\r\n\r\nstruct PresaleConfig {\r\n  uint32 startTime;\r\n  uint32 endTime;\r\n  uint32 supplyLimit;\r\n  uint256 mintPrice;\r\n}\r\n\r\nstruct DutchAuctionConfig {\r\n  uint32 txLimit;\r\n  uint32 startTime;\r\n  uint32 bottomTime;\r\n  uint32 stepInterval;\r\n  uint256 startPrice;\r\n  uint256 bottomPrice;\r\n  uint256 priceStep;\r\n}\r\n\r\ncontract CryptoBatz is Ownable, ERC721, ERC2981, SutterTreasury {\r\n  using Address for address;\r\n  using SafeCast for uint256;\r\n  using ECDSA for bytes32;\r\n\r\n  // EVENTS *****************************************************\r\n  event StartingIndexSet(uint256 _value);\r\n  event ProvenanceHashUpdated(uint256 _hash);\r\n  event WhitelistSignerUpdated(address _signer);\r\n  event BaseUriUpdated(string _uri);\r\n  event AncientBatzMinterUpdated(address _address);\r\n  event AncientBatzMinted(address indexed _to, uint256 indexed _id);\r\n  event PresaleConfigUpdated();\r\n  event DutchAuctionConfigUpdated();\r\n\r\n  // MEMBERS ****************************************************\r\n\r\n  uint256 public constant MAX_OWNER_RESERVE = 100;\r\n  uint256 public constant ANCIENT_BATZ_SUPPLY = 99;\r\n  uint256 public constant CRYPTO_BATZ_SUPPLY = 9666;\r\n\r\n  uint256 public totalSupply = 0;\r\n\r\n  // Mapping from owner to list of owned token IDs\r\n  mapping(address => mapping(uint256 => uint256)) private _ownedTokens;\r\n\r\n  // Mapping from token ID to index of the owner tokens list\r\n  mapping(uint256 => uint256) private _ownedTokensIndex;\r\n\r\n  PresaleConfig public presaleConfig;\r\n  DutchAuctionConfig public dutchAuctionConfig;\r\n\r\n  string public baseURI;\r\n  address public whitelistSigner;\r\n  address public ancientBatzMinter;\r\n\r\n  uint256 public PROVENANCE_HASH;\r\n  uint256 public randomizedStartIndex;\r\n\r\n  mapping(address => uint256) private presaleMinted;\r\n\r\n  bytes32 private DOMAIN_SEPARATOR;\r\n  bytes32 private constant TYPEHASH =\r\n    keccak256(\"presale(address buyer,uint256 limit)\");\r\n\r\n  address[] private mintPayees = [\r\n    0xaDC6A7985036531c394B6dF054666C51dE29b9a9, //Ozzy\r\n    0x76bf7b1e22C773754EBC608d92f71cc0B5D99d4B, //Sutter\r\n    0x8b8AbE9CEC13CF5050517816B2E95722E711818e //Dev\r\n  ];\r\n\r\n  uint256[] private mintShares = [50, 45, 5];\r\n\r\n  SutterTreasury public royaltyRecipient;\r\n\r\n  // CONSTRUCTOR **************************************************\r\n\r\n  constructor(string memory initialBaseUri)\r\n    ERC721(\"CryptoBatz by Ozzy Osbourne\", \"BATZ\")\r\n    SutterTreasury(mintPayees, mintShares)\r\n  {\r\n    baseURI = initialBaseUri;\r\n\r\n    ancientBatzMinter = msg.sender;\r\n\r\n    presaleConfig = PresaleConfig({\r\n      startTime: 1642633200, // Wed Jan 19 2022 23:00:00 GMT+0000\r\n      endTime: 1642719600, //\tThu Jan 20 2022 23:00:00 GMT+0000\r\n      supplyLimit: 8000,\r\n      mintPrice: 0.088 ether\r\n    });\r\n\r\n    dutchAuctionConfig = DutchAuctionConfig({\r\n      txLimit: 3,\r\n      startTime: 1642721400, // Thu Jan 20 2022 23:30:00 GMT+0000\r\n      bottomTime: 1642735800, // Fri Jan 21 2022 03:30:00 GMT+0000\r\n      stepInterval: 60, // 1 minute\r\n      startPrice: 1.666 ether,\r\n      bottomPrice: 0.1 ether,\r\n      priceStep: 0.006525 ether\r\n    });\r\n\r\n    address[] memory royaltyPayees = new address[](2);\r\n    royaltyPayees[0] = 0xaDC6A7985036531c394B6dF054666C51dE29b9a9; //Ozzy\r\n    royaltyPayees[1] = 0x76bf7b1e22C773754EBC608d92f71cc0B5D99d4B; //Sutter\r\n\r\n    uint256[] memory royaltyShares = new uint256[](2);\r\n    royaltyShares[0] = 70;\r\n    royaltyShares[1] = 30;\r\n\r\n    royaltyRecipient = new SutterTreasury(royaltyPayees, royaltyShares);\r\n\r\n    _setRoyalties(address(royaltyRecipient), 750); // 7.5% royalties\r\n\r\n    uint256 chainId;\r\n    assembly {\r\n      chainId := chainid()\r\n    }\r\n\r\n    DOMAIN_SEPARATOR = keccak256(\r\n      abi.encode(\r\n        keccak256(\r\n          \"EIP712Domain(string name,string version,uint256 chainId,address verifyingContract)\"\r\n        ),\r\n        keccak256(bytes(\"CryptoBatz\")),\r\n        keccak256(bytes(\"1\")),\r\n        chainId,\r\n        address(this)\r\n      )\r\n    );\r\n  }\r\n\r\n  // PUBLIC METHODS ****************************************************\r\n\r\n  /// @notice Allows users to buy during presale, only whitelisted addresses may call this function.\r\n  ///         Whitelisting is enforced by requiring a signature from the whitelistSigner address\r\n  /// @dev Whitelist signing is performed off chain, via the cryptobatz website backend\r\n  /// @param signature signed data authenticating the validity of this transaction\r\n  /// @param numberOfTokens number of NFTs to buy\r\n  /// @param approvedLimit the total number of NFTs this address is permitted to buy during presale, this number is also encoded in the signature\r\n  function buyPresale(\r\n    bytes calldata signature,\r\n    uint256 numberOfTokens,\r\n    uint256 approvedLimit\r\n  ) external payable {\r\n    PresaleConfig memory _config = presaleConfig;\r\n\r\n    require(\r\n      block.timestamp >= _config.startTime && block.timestamp < _config.endTime,\r\n      \"Presale is not active\"\r\n    );\r\n    require(whitelistSigner != address(0), \"Whitelist signer has not been set\");\r\n    require(\r\n      msg.value == (_config.mintPrice * numberOfTokens),\r\n      \"Incorrect payment\"\r\n    );\r\n    require(\r\n      (presaleMinted[msg.sender] + numberOfTokens) <= approvedLimit,\r\n      \"Mint limit exceeded\"\r\n    );\r\n    require(\r\n      (totalSupply + numberOfTokens) <= _config.supplyLimit,\r\n      \"Not enough BATZ remaining\"\r\n    );\r\n\r\n    bytes32 digest = keccak256(\r\n      abi.encodePacked(\r\n        \"\\x19\\x01\",\r\n        DOMAIN_SEPARATOR,\r\n        keccak256(abi.encode(TYPEHASH, msg.sender, approvedLimit))\r\n      )\r\n    );\r\n    address signer = digest.recover(signature);\r\n    require(\r\n      signer != address(0) && signer == whitelistSigner,\r\n      \"Invalid signature\"\r\n    );\r\n\r\n    presaleMinted[msg.sender] = presaleMinted[msg.sender] + numberOfTokens;\r\n\r\n    mint(msg.sender, numberOfTokens);\r\n  }\r\n\r\n  /// @notice Allows users to buy during public sale, pricing follows a dutch auction format\r\n  /// @dev Preventing contract buys has some downsides, but it seems to be what the NFT market generally wants as a bot mitigation measure\r\n  /// @param numberOfTokens the number of NFTs to buy\r\n  function buyPublic(uint256 numberOfTokens) external payable {\r\n    // disallow contracts from buying\r\n    require(\r\n      (!msg.sender.isContract() && msg.sender == tx.origin),\r\n      \"Contract buys not allowed\"\r\n    );\r\n\r\n    DutchAuctionConfig memory _config = dutchAuctionConfig;\r\n\r\n    require(\r\n      (totalSupply + numberOfTokens) <= CRYPTO_BATZ_SUPPLY,\r\n      \"Not enough BATZ remaining\"\r\n    );\r\n    require(block.timestamp >= _config.startTime, \"Sale is not active\");\r\n    require(numberOfTokens <= _config.txLimit, \"Transaction limit exceeded\");\r\n\r\n    uint256 mintPrice = getCurrentAuctionPrice() * numberOfTokens;\r\n    require(msg.value >= mintPrice, \"Insufficient payment\");\r\n\r\n    // refund if customer paid more than the cost to mint\r\n    if (msg.value > mintPrice) {\r\n      Address.sendValue(payable(msg.sender), msg.value - mintPrice);\r\n    }\r\n\r\n    mint(msg.sender, numberOfTokens);\r\n  }\r\n\r\n  /// @notice Gets the current price for the duction auction, based on current block timestamp\r\n  /// @dev Dutch auction parameters configured via dutchAuctionConfig\r\n  /// @return currentPrice Current mint price per NFT\r\n  function getCurrentAuctionPrice() public view returns (uint256 currentPrice) {\r\n    DutchAuctionConfig memory _config = dutchAuctionConfig;\r\n\r\n    uint256 timestamp = block.timestamp;\r\n\r\n    if (timestamp < _config.startTime) {\r\n      currentPrice = _config.startPrice;\r\n    } else if (timestamp >= _config.bottomTime) {\r\n      currentPrice = _config.bottomPrice;\r\n    } else {\r\n      uint256 elapsedIntervals = (timestamp - _config.startTime) /\r\n        _config.stepInterval;\r\n      currentPrice =\r\n        _config.startPrice -\r\n        (elapsedIntervals * _config.priceStep);\r\n    }\r\n\r\n    return currentPrice;\r\n  }\r\n\r\n  /// @notice Gets an array of tokenIds owned by a wallet\r\n  /// @param wallet wallet address to query contents for\r\n  /// @return an array of tokenIds owned by wallet\r\n  function tokensOwnedBy(address wallet)\r\n    external\r\n    view\r\n    returns (uint256[] memory)\r\n  {\r\n    uint256 tokenCount = balanceOf(wallet);\r\n\r\n    uint256[] memory ownedTokenIds = new uint256[](tokenCount);\r\n    for (uint256 i = 0; i < tokenCount; i++) {\r\n      ownedTokenIds[i] = _ownedTokens[wallet][i];\r\n    }\r\n\r\n    return ownedTokenIds;\r\n  }\r\n\r\n  /// @inheritdoc\tERC165\r\n  function supportsInterface(bytes4 interfaceId)\r\n    public\r\n    view\r\n    override(ERC721, ERC2981)\r\n    returns (bool)\r\n  {\r\n    return super.supportsInterface(interfaceId);\r\n  }\r\n\r\n  // OWNER METHODS ********************************************************\r\n\r\n  /// @notice Allows the contract owner to reserve NFTs for team members or promotional purposes\r\n  /// @dev This should be called before presale or public sales start, as only the first MAX_OWNER_RESERVE tokens can be reserved\r\n  /// @param to address for the reserved NFTs to be minted to\r\n  /// @param numberOfTokens number of NFTs to reserve\r\n  function reserve(address to, uint256 numberOfTokens) external onlyOwner {\r\n    require(\r\n      (totalSupply + numberOfTokens) <= MAX_OWNER_RESERVE,\r\n      \"Exceeds owner reserve limit\"\r\n    );\r\n\r\n    mint(to, numberOfTokens);\r\n  }\r\n\r\n  /// @notice Allows the owner to roll a pseudo-random number once, which will be used as the starting index for the token metadata.\r\n  ///         This is used to prove randomness and fairness in the metadata distribution, in conjunction with the PROVENANCE_HASH\r\n  /// @dev The starting index can only be set once, only after the start of the public sale, and only if the PROVENANCE_HASH has been set\r\n  function rollStartIndex() external onlyOwner {\r\n    require(PROVENANCE_HASH != 0, \"Provenance hash not set\");\r\n    require(randomizedStartIndex == 0, \"Index already set\");\r\n    require(\r\n      block.timestamp >= dutchAuctionConfig.startTime,\r\n      \"Too early to roll start index\"\r\n    );\r\n\r\n    uint256 number = uint256(\r\n      keccak256(\r\n        abi.encodePacked(\r\n          blockhash(block.number - 1),\r\n          block.coinbase,\r\n          block.difficulty,\r\n          block.timestamp\r\n        )\r\n      )\r\n    );\r\n\r\n    randomizedStartIndex = (number % CRYPTO_BATZ_SUPPLY) + 1;\r\n\r\n    emit StartingIndexSet(randomizedStartIndex);\r\n  }\r\n\r\n  /// @notice Allows the ancientBatzMinter to mint an AncientBatz to the specified address\r\n  /// The Hanging Judge\r\n  /// @param to the address for the AncientBatz to be minted to\r\n  /// @param ancientBatzId the AncientBatz id, from 1 to ANCIENT_BATZ_SUPPLY inclusive\r\n  function mintAncientBatz(address to, uint256 ancientBatzId) external {\r\n    require(ancientBatzMinter != address(0), \"AncientBatz minter not set\");\r\n    require(\r\n      msg.sender == ancientBatzMinter,\r\n      \"Must be authorized AncientBatz minter\"\r\n    );\r\n    require(\r\n      ancientBatzId > 0 && ancientBatzId <= ANCIENT_BATZ_SUPPLY,\r\n      \"Invalid AncientBatz Id\"\r\n    );\r\n\r\n    uint256 tokenId = CRYPTO_BATZ_SUPPLY + ancientBatzId;\r\n\r\n    emit AncientBatzMinted(to, ancientBatzId);\r\n    _safeMint(to, tokenId);\r\n\r\n    totalSupply++;\r\n  }\r\n\r\n  function setBaseURI(string calldata newBaseUri) external onlyOwner {\r\n    emit BaseUriUpdated(newBaseUri);\r\n    baseURI = newBaseUri;\r\n  }\r\n\r\n  function setWhitelistSigner(address newWhitelistSigner) external onlyOwner {\r\n    emit WhitelistSignerUpdated(newWhitelistSigner);\r\n    whitelistSigner = newWhitelistSigner;\r\n  }\r\n\r\n  function setAncientBatzMinter(address newMinter) external onlyOwner {\r\n    emit AncientBatzMinterUpdated(newMinter);\r\n    ancientBatzMinter = newMinter;\r\n  }\r\n\r\n  function setProvenance(uint256 provenanceHash) external onlyOwner {\r\n    require(randomizedStartIndex == 0, \"Starting index already set\");\r\n\r\n    emit ProvenanceHashUpdated(provenanceHash);\r\n    PROVENANCE_HASH = provenanceHash;\r\n  }\r\n\r\n  /// @notice Allows the contract owner to update start and end time for the presale\r\n  function configurePresale(uint256 startTime, uint256 endTime)\r\n    external\r\n    onlyOwner\r\n  {\r\n    uint32 _startTime = startTime.toUint32();\r\n    uint32 _endTime = endTime.toUint32();\r\n\r\n    require(0 < _startTime, \"Invalid time\");\r\n    require(_startTime < _endTime, \"Invalid time\");\r\n    require(_endTime <= dutchAuctionConfig.startTime, \"Invalid time\");\r\n\r\n    presaleConfig.startTime = _startTime;\r\n    presaleConfig.endTime = _endTime;\r\n\r\n    emit PresaleConfigUpdated();\r\n  }\r\n\r\n  /// @notice Allows the contract owner to update config for the public dutch auction\r\n  function configureDutchAuction(\r\n    uint256 startTime,\r\n    uint256 bottomTime,\r\n    uint256 stepInterval,\r\n    uint256 startPrice,\r\n    uint256 bottomPrice,\r\n    uint256 priceStep\r\n  ) external onlyOwner {\r\n    uint32 _startTime = startTime.toUint32();\r\n    uint32 _bottomTime = bottomTime.toUint32();\r\n    uint32 _stepInterval = stepInterval.toUint32();\r\n\r\n    require(presaleConfig.endTime <= _startTime, \"Invalid time\");\r\n    require(_startTime < _bottomTime, \"Invalid time\");\r\n    require(0 < stepInterval, \"0 step interval\");\r\n    require(bottomPrice < startPrice, \"Invalid start price\");\r\n    require(0 < bottomPrice, \"Invalid bottom price\");\r\n    require(0 < priceStep && priceStep < startPrice, \"Invalid price step\");\r\n\r\n    dutchAuctionConfig.startTime = _startTime;\r\n    dutchAuctionConfig.bottomTime = _bottomTime;\r\n    dutchAuctionConfig.stepInterval = _stepInterval;\r\n    dutchAuctionConfig.startPrice = startPrice;\r\n    dutchAuctionConfig.bottomPrice = bottomPrice;\r\n    dutchAuctionConfig.priceStep = priceStep;\r\n\r\n    emit DutchAuctionConfigUpdated();\r\n  }\r\n\r\n  // PRIVATE/INTERNAL METHODS ****************************************************\r\n\r\n  function _baseURI() internal view override returns (string memory) {\r\n    return baseURI;\r\n  }\r\n\r\n  function mint(address to, uint256 numberOfTokens) private {\r\n    uint256 newId = totalSupply;\r\n\r\n    for (uint256 i = 0; i < numberOfTokens; i++) {\r\n      newId += 1;\r\n      _safeMint(to, newId);\r\n    }\r\n\r\n    totalSupply = newId;\r\n  }\r\n\r\n  // ************************************************************************************************************************\r\n  // The following methods are borrowed from OpenZeppelin's ERC721Enumerable contract, to make it easier to query a wallet's\r\n  // contents without incurring the extra storage gas costs of the full ERC721Enumerable extension\r\n  // ************************************************************************************************************************\r\n\r\n  /**\r\n   * @dev Private function to add a token to ownership-tracking data structures.\r\n   * @param to address representing the new owner of the given token ID\r\n   * @param tokenId uint256 ID of the token to be added to the tokens list of the given address\r\n   */\r\n  function _addTokenToOwnerEnumeration(address to, uint256 tokenId) private {\r\n    uint256 length = ERC721.balanceOf(to);\r\n    _ownedTokens[to][length] = tokenId;\r\n    _ownedTokensIndex[tokenId] = length;\r\n  }\r\n\r\n  /**\r\n   * @dev Private function to remove a token from this extension's ownership-tracking data structures. Note that\r\n   * while the token is not assigned a new owner, the `_ownedTokensIndex` mapping is _not_ updated: this allows for\r\n   * gas optimizations e.g. when performing a transfer operation (avoiding double writes).\r\n   * This has O(1) time complexity, but alters the order of the _ownedTokens array.\r\n   * @param from address representing the previous owner of the given token ID\r\n   * @param tokenId uint256 ID of the token to be removed from the tokens list of the given address\r\n   */\r\n  function _removeTokenFromOwnerEnumeration(address from, uint256 tokenId)\r\n    private\r\n  {\r\n    // To prevent a gap in from's tokens array, we store the last token in the index of the token to delete, and\r\n    // then delete the last slot (swap and pop).\r\n\r\n    uint256 lastTokenIndex = ERC721.balanceOf(from) - 1;\r\n    uint256 tokenIndex = _ownedTokensIndex[tokenId];\r\n\r\n    // When the token to delete is the last token, the swap operation is unnecessary\r\n    if (tokenIndex != lastTokenIndex) {\r\n      uint256 lastTokenId = _ownedTokens[from][lastTokenIndex];\r\n\r\n      _ownedTokens[from][tokenIndex] = lastTokenId; // Move the last token to the slot of the to-delete token\r\n      _ownedTokensIndex[lastTokenId] = tokenIndex; // Update the moved token's index\r\n    }\r\n\r\n    // This also deletes the contents at the last position of the array\r\n    delete _ownedTokensIndex[tokenId];\r\n    delete _ownedTokens[from][lastTokenIndex];\r\n  }\r\n\r\n  /**\r\n   * @dev Hook that is called before any token transfer. This includes minting\r\n   * and burning.\r\n   *\r\n   * Calling conditions:\r\n   *\r\n   * - When `from` and `to` are both non-zero, ``from``'s `tokenId` will be\r\n   * transferred to `to`.\r\n   * - When `from` is zero, `tokenId` will be minted for `to`.\r\n   * - When `to` is zero, ``from``'s `tokenId` will be burned.\r\n   * - `from` cannot be the zero address.\r\n   * - `to` cannot be the zero address.\r\n   *\r\n   * To learn more about hooks, head to xref:ROOT:extending-contracts.adoc#using-hooks[Using Hooks].\r\n   */\r\n  function _beforeTokenTransfer(\r\n    address from,\r\n    address to,\r\n    uint256 tokenId\r\n  ) internal virtual override {\r\n    super._beforeTokenTransfer(from, to, tokenId);\r\n\r\n    if (from != address(0)) {\r\n      _removeTokenFromOwnerEnumeration(from, tokenId);\r\n    }\r\n    if (to != address(0)) {\r\n      _addTokenToOwnerEnumeration(to, tokenId);\r\n    }\r\n  }\r\n}",
  "sourcePath": "C:\\Users\\afons\\Projetos no Windows\\nft-ozzy\\contracts\\CryptoBatz.sol",
  "compiler": {
    "name": "solc",
    "version": "0.8.11+commit.d7f03943.Emscripten.clang"
  },
  "schemaVersion": "3.4.4",
  "updatedAt": "2022-02-02T21:18:07.872Z",
  "networkType": "ethereum",
  "devdoc": {
    "kind": "dev",
    "methods": {
      "approve(address,uint256)": {
        "details": "See {IERC721-approve}."
      },
      "balanceOf(address)": {
        "details": "See {IERC721-balanceOf}."
      },
      "buyPresale(bytes,uint256,uint256)": {
        "details": "Whitelist signing is performed off chain, via the cryptobatz website backend",
        "params": {
          "approvedLimit": "the total number of NFTs this address is permitted to buy during presale, this number is also encoded in the signature",
          "numberOfTokens": "number of NFTs to buy",
          "signature": "signed data authenticating the validity of this transaction"
        }
      },
      "buyPublic(uint256)": {
        "details": "Preventing contract buys has some downsides, but it seems to be what the NFT market generally wants as a bot mitigation measure",
        "params": {
          "numberOfTokens": "the number of NFTs to buy"
        }
      },
      "getApproved(uint256)": {
        "details": "See {IERC721-getApproved}."
      },
      "getCurrentAuctionPrice()": {
        "details": "Dutch auction parameters configured via dutchAuctionConfig",
        "returns": {
          "currentPrice": "Current mint price per NFT"
        }
      },
      "isApprovedForAll(address,address)": {
        "details": "See {IERC721-isApprovedForAll}."
      },
      "mintAncientBatz(address,uint256)": {
        "params": {
          "ancientBatzId": "the AncientBatz id, from 1 to ANCIENT_BATZ_SUPPLY inclusive",
          "to": "the address for the AncientBatz to be minted to"
        }
      },
      "name()": {
        "details": "See {IERC721Metadata-name}."
      },
      "owner()": {
        "details": "Returns the address of the current owner."
      },
      "ownerOf(uint256)": {
        "details": "See {IERC721-ownerOf}."
      },
      "payee(uint256)": {
        "details": "Getter for the address of the payee number `index`."
      },
      "release(address)": {
        "details": "Triggers a transfer to `account` of the amount of Ether they are owed, according to their percentage of the total shares and their previous withdrawals."
      },
      "release(address,address)": {
        "details": "Triggers a transfer to `account` of the amount of `token` tokens they are owed, according to their percentage of the total shares and their previous withdrawals. `token` must be the address of an IERC20 contract."
      },
      "released(address)": {
        "details": "Getter for the amount of Ether already released to a payee."
      },
      "released(address,address)": {
        "details": "Getter for the amount of `token` tokens already released to a payee. `token` should be the address of an IERC20 contract."
      },
      "renounceOwnership()": {
        "details": "Leaves the contract without owner. It will not be possible to call `onlyOwner` functions anymore. Can only be called by the current owner. NOTE: Renouncing ownership will leave the contract without an owner, thereby removing any functionality that is only available to the owner."
      },
      "reserve(address,uint256)": {
        "details": "This should be called before presale or public sales start, as only the first MAX_OWNER_RESERVE tokens can be reserved",
        "params": {
          "numberOfTokens": "number of NFTs to reserve",
          "to": "address for the reserved NFTs to be minted to"
        }
      },
      "rollStartIndex()": {
        "details": "The starting index can only be set once, only after the start of the public sale, and only if the PROVENANCE_HASH has been set"
      },
      "royaltyInfo(uint256,uint256)": {
        "params": {
          "_salePrice": "- the sale price of the NFT asset specified by _tokenId",
          "_tokenId": "- the NFT asset queried for royalty information"
        },
        "returns": {
          "receiver": "- address of who should be sent the royalty payment",
          "royaltyAmount": "- the royalty payment amount for _salePrice"
        }
      },
      "safeTransferFrom(address,address,uint256)": {
        "details": "See {IERC721-safeTransferFrom}."
      },
      "safeTransferFrom(address,address,uint256,bytes)": {
        "details": "See {IERC721-safeTransferFrom}."
      },
      "setApprovalForAll(address,bool)": {
        "details": "See {IERC721-setApprovalForAll}."
      },
      "shares(address)": {
        "details": "Getter for the amount of shares held by an account."
      },
      "supportsInterface(bytes4)": {
        "details": "See {IERC165-supportsInterface}."
      },
      "symbol()": {
        "details": "See {IERC721Metadata-symbol}."
      },
      "tokenURI(uint256)": {
        "details": "See {IERC721Metadata-tokenURI}."
      },
      "tokensOwnedBy(address)": {
        "params": {
          "wallet": "wallet address to query contents for"
        },
        "returns": {
          "_0": "an array of tokenIds owned by wallet"
        }
      },
      "totalReleased()": {
        "details": "Getter for the total amount of Ether already released."
      },
      "totalReleased(address)": {
        "details": "Getter for the total amount of `token` already released. `token` should be the address of an IERC20 contract."
      },
      "totalShares()": {
        "details": "Getter for the total shares held by payees."
      },
      "transferFrom(address,address,uint256)": {
        "details": "See {IERC721-transferFrom}."
      },
      "transferOwnership(address)": {
        "details": "Transfers ownership of the contract to a new account (`newOwner`). Can only be called by the current owner."
      }
    },
    "version": 1
  },
  "userdoc": {
    "kind": "user",
    "methods": {
      "buyPresale(bytes,uint256,uint256)": {
        "notice": "Allows users to buy during presale, only whitelisted addresses may call this function.         Whitelisting is enforced by requiring a signature from the whitelistSigner address"
      },
      "buyPublic(uint256)": {
        "notice": "Allows users to buy during public sale, pricing follows a dutch auction format"
      },
      "configureDutchAuction(uint256,uint256,uint256,uint256,uint256,uint256)": {
        "notice": "Allows the contract owner to update config for the public dutch auction"
      },
      "configurePresale(uint256,uint256)": {
        "notice": "Allows the contract owner to update start and end time for the presale"
      },
      "getCurrentAuctionPrice()": {
        "notice": "Gets the current price for the duction auction, based on current block timestamp"
      },
      "mintAncientBatz(address,uint256)": {
        "notice": "Allows the ancientBatzMinter to mint an AncientBatz to the specified address The Hanging Judge"
      },
      "reserve(address,uint256)": {
        "notice": "Allows the contract owner to reserve NFTs for team members or promotional purposes"
      },
      "rollStartIndex()": {
        "notice": "Allows the owner to roll a pseudo-random number once, which will be used as the starting index for the token metadata.         This is used to prove randomness and fairness in the metadata distribution, in conjunction with the PROVENANCE_HASH"
      },
      "tokensOwnedBy(address)": {
        "notice": "Gets an array of tokenIds owned by a wallet"
      }
    },
    "version": 1
  }
}