{
  "contractName": "ERC2981",
  "abi": [
    {
      "inputs": [
        {
          "internalType": "uint256",
          "name": "",
          "type": "uint256"
        },
        {
          "internalType": "uint256",
          "name": "value",
          "type": "uint256"
        }
      ],
      "name": "royaltyInfo",
      "outputs": [
        {
          "internalType": "address",
          "name": "receiver",
          "type": "address"
        },
        {
          "internalType": "uint256",
          "name": "royaltyAmount",
          "type": "uint256"
        }
      ],
      "stateMutability": "view",
      "type": "function"
    },
    {
      "inputs": [
        {
          "internalType": "bytes4",
          "name": "interfaceId",
          "type": "bytes4"
        }
      ],
      "name": "supportsInterface",
      "outputs": [
        {
          "internalType": "bool",
          "name": "",
          "type": "bool"
        }
      ],
      "stateMutability": "view",
      "type": "function"
    }
  ],
  "bytecode": "0x608060405234801561001057600080fd5b506101f8806100206000396000f3fe608060405234801561001057600080fd5b50600436106100365760003560e01c806301ffc9a71461003b5780632a55205a14610063575b600080fd5b61004e610049366004610120565b610095565b60405190151581526020015b60405180910390f35b610076610071366004610151565b6100cc565b604080516001600160a01b03909316835260208301919091520161005a565b60006001600160e01b0319821663152a902d60e11b14806100c657506301ffc9a760e01b6001600160e01b03198316145b92915050565b60408051808201909152600080546001600160a01b038116808452600160a01b90910462ffffff16602084018190529092906127109061010c9086610173565b61011691906101a0565b9150509250929050565b60006020828403121561013257600080fd5b81356001600160e01b03198116811461014a57600080fd5b9392505050565b6000806040838503121561016457600080fd5b50508035926020909101359150565b600081600019048311821515161561019b57634e487b7160e01b600052601160045260246000fd5b500290565b6000826101bd57634e487b7160e01b600052601260045260246000fd5b50049056fea2646970667358221220fff65f9649e041498be4b84aaca8d91fdf0dba3f6451bad219b7d6f7c98b0a7b64736f6c634300080b0033",
  "immutableReferences": {},
  "source": "// SPDX-License-Identifier: MIT\r\npragma solidity ^0.8.8;\r\n\r\nimport \"@openzeppelin/contracts/utils/introspection/ERC165.sol\";\r\nimport \"./IERC2981.sol\";\r\n\r\n/// @dev This is a contract used to add ERC2981 support to ERC721 and 1155\r\ncontract ERC2981 is ERC165, IERC2981 {\r\n  struct RoyaltyInfo {\r\n    address recipient;\r\n    uint24 amount;\r\n  }\r\n\r\n  RoyaltyInfo private _royalties;\r\n\r\n  /// @dev Sets token royalties\r\n  /// @param recipient recipient of the royalties\r\n  /// @param value percentage (using 2 decimals - 10000 = 100, 0 = 0)\r\n  function _setRoyalties(address recipient, uint256 value) internal {\r\n    require(value <= 10000, \"ERC2981Royalties: Too high\");\r\n    _royalties = RoyaltyInfo(recipient, uint24(value));\r\n  }\r\n\r\n  /// @inheritdoc\tIERC2981\r\n  function royaltyInfo(uint256, uint256 value)\r\n    external\r\n    view\r\n    override\r\n    returns (address receiver, uint256 royaltyAmount)\r\n  {\r\n    RoyaltyInfo memory royalties = _royalties;\r\n    receiver = royalties.recipient;\r\n    royaltyAmount = (value * royalties.amount) / 10000;\r\n  }\r\n\r\n  /// @inheritdoc\tERC165\r\n  function supportsInterface(bytes4 interfaceId)\r\n    public\r\n    view\r\n    virtual\r\n    override\r\n    returns (bool)\r\n  {\r\n    return\r\n      interfaceId == type(IERC2981).interfaceId ||\r\n      super.supportsInterface(interfaceId);\r\n  }\r\n}",
  "sourcePath": "C:\\Users\\afons\\Projetos no Windows\\nft-ozzy\\contracts\\ERC2981.sol",
  "compiler": {
    "name": "solc",
    "version": "0.8.11+commit.d7f03943.Emscripten.clang"
  },
  "schemaVersion": "3.4.4",
  "updatedAt": "2022-02-02T21:17:58.981Z",
  "devdoc": {
    "details": "This is a contract used to add ERC2981 support to ERC721 and 1155",
    "kind": "dev",
    "methods": {
      "royaltyInfo(uint256,uint256)": {
        "params": {
          "_salePrice": "- the sale price of the NFT asset specified by _tokenId",
          "_tokenId": "- the NFT asset queried for royalty information"
        },
        "returns": {
          "receiver": "- address of who should be sent the royalty payment",
          "royaltyAmount": "- the royalty payment amount for _salePrice"
        }
      },
      "supportsInterface(bytes4)": {
        "details": "See {IERC165-supportsInterface}."
      }
    },
    "version": 1
  },
  "userdoc": {
    "kind": "user",
    "methods": {},
    "version": 1
  }
}