{
  "contractName": "SutterTreasury",
  "abi": [
    {
      "inputs": [
        {
          "internalType": "address[]",
          "name": "payees",
          "type": "address[]"
        },
        {
          "internalType": "uint256[]",
          "name": "shares_",
          "type": "uint256[]"
        }
      ],
      "stateMutability": "payable",
      "type": "constructor"
    },
    {
      "anonymous": false,
      "inputs": [
        {
          "indexed": true,
          "internalType": "contract IERC20",
          "name": "token",
          "type": "address"
        },
        {
          "indexed": false,
          "internalType": "address",
          "name": "to",
          "type": "address"
        },
        {
          "indexed": false,
          "internalType": "uint256",
          "name": "amount",
          "type": "uint256"
        }
      ],
      "name": "ERC20PaymentReleased",
      "type": "event"
    },
    {
      "anonymous": false,
      "inputs": [
        {
          "indexed": false,
          "internalType": "address",
          "name": "account",
          "type": "address"
        },
        {
          "indexed": false,
          "internalType": "uint256",
          "name": "shares",
          "type": "uint256"
        }
      ],
      "name": "PayeeAdded",
      "type": "event"
    },
    {
      "anonymous": false,
      "inputs": [
        {
          "indexed": false,
          "internalType": "address",
          "name": "from",
          "type": "address"
        },
        {
          "indexed": false,
          "internalType": "uint256",
          "name": "amount",
          "type": "uint256"
        }
      ],
      "name": "PaymentReceived",
      "type": "event"
    },
    {
      "anonymous": false,
      "inputs": [
        {
          "indexed": false,
          "internalType": "address",
          "name": "to",
          "type": "address"
        },
        {
          "indexed": false,
          "internalType": "uint256",
          "name": "amount",
          "type": "uint256"
        }
      ],
      "name": "PaymentReleased",
      "type": "event"
    },
    {
      "inputs": [
        {
          "internalType": "uint256",
          "name": "index",
          "type": "uint256"
        }
      ],
      "name": "payee",
      "outputs": [
        {
          "internalType": "address",
          "name": "",
          "type": "address"
        }
      ],
      "stateMutability": "view",
      "type": "function"
    },
    {
      "inputs": [
        {
          "internalType": "address payable",
          "name": "account",
          "type": "address"
        }
      ],
      "name": "release",
      "outputs": [],
      "stateMutability": "nonpayable",
      "type": "function"
    },
    {
      "inputs": [
        {
          "internalType": "contract IERC20",
          "name": "token",
          "type": "address"
        },
        {
          "internalType": "address",
          "name": "account",
          "type": "address"
        }
      ],
      "name": "release",
      "outputs": [],
      "stateMutability": "nonpayable",
      "type": "function"
    },
    {
      "inputs": [
        {
          "internalType": "contract IERC20",
          "name": "token",
          "type": "address"
        },
        {
          "internalType": "address",
          "name": "account",
          "type": "address"
        }
      ],
      "name": "released",
      "outputs": [
        {
          "internalType": "uint256",
          "name": "",
          "type": "uint256"
        }
      ],
      "stateMutability": "view",
      "type": "function"
    },
    {
      "inputs": [
        {
          "internalType": "address",
          "name": "account",
          "type": "address"
        }
      ],
      "name": "released",
      "outputs": [
        {
          "internalType": "uint256",
          "name": "",
          "type": "uint256"
        }
      ],
      "stateMutability": "view",
      "type": "function"
    },
    {
      "inputs": [
        {
          "internalType": "address",
          "name": "account",
          "type": "address"
        }
      ],
      "name": "shares",
      "outputs": [
        {
          "internalType": "uint256",
          "name": "",
          "type": "uint256"
        }
      ],
      "stateMutability": "view",
      "type": "function"
    },
    {
      "inputs": [
        {
          "internalType": "contract IERC20",
          "name": "token",
          "type": "address"
        }
      ],
      "name": "totalReleased",
      "outputs": [
        {
          "internalType": "uint256",
          "name": "",
          "type": "uint256"
        }
      ],
      "stateMutability": "view",
      "type": "function"
    },
    {
      "inputs": [],
      "name": "totalReleased",
      "outputs": [
        {
          "internalType": "uint256",
          "name": "",
          "type": "uint256"
        }
      ],
      "stateMutability": "view",
      "type": "function"
    },
    {
      "inputs": [],
      "name": "totalShares",
      "outputs": [
        {
          "internalType": "uint256",
          "name": "",
          "type": "uint256"
        }
      ],
      "stateMutability": "view",
      "type": "function"
    },
    {
      "stateMutability": "payable",
      "type": "receive"
    },
    {
      "inputs": [],
      "name": "withdrawAll",
      "outputs": [],
      "stateMutability": "nonpayable",
      "type": "function"
    }
  ],
  "bytecode": "0x60806040526040516200120b3803806200120b833981016040819052620000269162000437565b818180518251146200009a5760405162461bcd60e51b815260206004820152603260248201527f5061796d656e7453706c69747465723a2070617965657320616e6420736861726044820152710cae640d8cadccee8d040dad2e6dac2e8c6d60731b60648201526084015b60405180910390fd5b6000825111620000ed5760405162461bcd60e51b815260206004820152601a60248201527f5061796d656e7453706c69747465723a206e6f20706179656573000000000000604482015260640162000091565b60005b825181101562000159576200014483828151811062000113576200011362000515565b602002602001015183838151811062000130576200013062000515565b60200260200101516200016960201b60201c565b80620001508162000541565b915050620000f0565b50509151600755506200057a9050565b6001600160a01b038216620001d65760405162461bcd60e51b815260206004820152602c60248201527f5061796d656e7453706c69747465723a206163636f756e74206973207468652060448201526b7a65726f206164647265737360a01b606482015260840162000091565b60008111620002285760405162461bcd60e51b815260206004820152601d60248201527f5061796d656e7453706c69747465723a20736861726573206172652030000000604482015260640162000091565b6001600160a01b03821660009081526002602052604090205415620002a45760405162461bcd60e51b815260206004820152602b60248201527f5061796d656e7453706c69747465723a206163636f756e7420616c726561647960448201526a206861732073686172657360a81b606482015260840162000091565b60048054600181019091557f8a35acfbc15ff81a39ae7d344fd709f28e8600b4aa8c65c6b64bfe7fe36bd19b0180546001600160a01b0319166001600160a01b0384169081179091556000908152600260205260408120829055546200030c9082906200055f565b600055604080516001600160a01b0384168152602081018390527f40c340f65e17194d14ddddb073d3c9f888e3cb52b5aae0c6c7706b4fbc905fac910160405180910390a15050565b634e487b7160e01b600052604160045260246000fd5b604051601f8201601f191681016001600160401b038111828210171562000396576200039662000355565b604052919050565b60006001600160401b03821115620003ba57620003ba62000355565b5060051b60200190565b600082601f830112620003d657600080fd5b81516020620003ef620003e9836200039e565b6200036b565b82815260059290921b840181019181810190868411156200040f57600080fd5b8286015b848110156200042c578051835291830191830162000413565b509695505050505050565b600080604083850312156200044b57600080fd5b82516001600160401b03808211156200046357600080fd5b818501915085601f8301126200047857600080fd5b815160206200048b620003e9836200039e565b82815260059290921b84018101918181019089841115620004ab57600080fd5b948201945b83861015620004e25785516001600160a01b0381168114620004d25760008081fd5b82529482019490820190620004b0565b91880151919650909350505080821115620004fc57600080fd5b506200050b85828601620003c4565b9150509250929050565b634e487b7160e01b600052603260045260246000fd5b634e487b7160e01b600052601160045260246000fd5b60006000198214156200055857620005586200052b565b5060010190565b600082198211156200057557620005756200052b565b500190565b610c81806200058a6000396000f3fe6080604052600436106100955760003560e01c80638b83209b116100595780638b83209b146101a45780639852595c146101dc578063ce7c2ac214610212578063d79779b214610248578063e33b7de31461027e57600080fd5b806319165587146100e35780633a98ef3914610105578063406072a91461012957806348b750441461016f578063853828b61461018f57600080fd5b366100de577f6ef95f06320e7a25a04a175ca677b7052bdd97131872c2192525a629f51be77033604080516001600160a01b0390921682523460208301520160405180910390a1005b600080fd5b3480156100ef57600080fd5b506101036100fe3660046109da565b610293565b005b34801561011157600080fd5b506000545b6040519081526020015b60405180910390f35b34801561013557600080fd5b506101166101443660046109f7565b6001600160a01b03918216600090815260066020908152604080832093909416825291909152205490565b34801561017b57600080fd5b5061010361018a3660046109f7565b6103ca565b34801561019b57600080fd5b506101036105a3565b3480156101b057600080fd5b506101c46101bf366004610a30565b61061a565b6040516001600160a01b039091168152602001610120565b3480156101e857600080fd5b506101166101f73660046109da565b6001600160a01b031660009081526003602052604090205490565b34801561021e57600080fd5b5061011661022d3660046109da565b6001600160a01b031660009081526002602052604090205490565b34801561025457600080fd5b506101166102633660046109da565b6001600160a01b031660009081526005602052604090205490565b34801561028a57600080fd5b50600154610116565b6001600160a01b0381166000908152600260205260409020546102d15760405162461bcd60e51b81526004016102c890610a49565b60405180910390fd5b60006102dc60015490565b6102e69047610aa5565b90506000610313838361030e866001600160a01b031660009081526003602052604090205490565b61064a565b9050806103325760405162461bcd60e51b81526004016102c890610abd565b6001600160a01b0383166000908152600360205260408120805483929061035a908490610aa5565b9250508190555080600160008282546103739190610aa5565b909155506103839050838261068f565b604080516001600160a01b0385168152602081018390527fdf20fd1e76bc69d672e4814fafb2c449bba3a5369d8359adf9e05e6fde87b056910160405180910390a1505050565b6001600160a01b0381166000908152600260205260409020546103ff5760405162461bcd60e51b81526004016102c890610a49565b6001600160a01b0382166000908152600560205260408120546040516370a0823160e01b81523060048201526001600160a01b038516906370a0823190602401602060405180830381865afa15801561045c573d6000803e3d6000fd5b505050506040513d601f19601f820116820180604052508101906104809190610b08565b61048a9190610aa5565b905060006104c3838361030e87876001600160a01b03918216600090815260066020908152604080832093909416825291909152205490565b9050806104e25760405162461bcd60e51b81526004016102c890610abd565b6001600160a01b03808516600090815260066020908152604080832093871683529290529081208054839290610519908490610aa5565b90915550506001600160a01b03841660009081526005602052604081208054839290610546908490610aa5565b9091555061055790508484836107ad565b604080516001600160a01b038581168252602082018490528616917f3be5b7a71e84ed12875d241991c70855ac5817d847039e17a9d895c1ceb0f18a910160405180910390a250505050565b600047116105ec5760405162461bcd60e51b81526020600482015260166024820152754e6f2062616c616e636520746f20776974686472617760501b60448201526064016102c8565b60005b600754811015610617576106056100fe8261061a565b8061060f81610b21565b9150506105ef565b50565b60006004828154811061062f5761062f610b3c565b6000918252602090912001546001600160a01b031692915050565b600080546001600160a01b0385168252600260205260408220548391906106719086610b52565b61067b9190610b71565b6106859190610b93565b90505b9392505050565b804710156106df5760405162461bcd60e51b815260206004820152601d60248201527f416464726573733a20696e73756666696369656e742062616c616e636500000060448201526064016102c8565b6000826001600160a01b03168260405160006040518083038185875af1925050503d806000811461072c576040519150601f19603f3d011682016040523d82523d6000602084013e610731565b606091505b50509050806107a85760405162461bcd60e51b815260206004820152603a60248201527f416464726573733a20756e61626c6520746f2073656e642076616c75652c207260448201527f6563697069656e74206d6179206861766520726576657274656400000000000060648201526084016102c8565b505050565b604080516001600160a01b03848116602483015260448083018590528351808403909101815260649092018352602080830180516001600160e01b031663a9059cbb60e01b17905283518085019094528084527f5361666545524332303a206c6f772d6c6576656c2063616c6c206661696c6564908401526107a89286929160009161083d9185169084906108ba565b8051909150156107a8578080602001905181019061085b9190610baa565b6107a85760405162461bcd60e51b815260206004820152602a60248201527f5361666545524332303a204552433230206f7065726174696f6e20646964206e6044820152691bdd081cdd58d8d9595960b21b60648201526084016102c8565b6060610685848460008585843b6109135760405162461bcd60e51b815260206004820152601d60248201527f416464726573733a2063616c6c20746f206e6f6e2d636f6e747261637400000060448201526064016102c8565b600080866001600160a01b0316858760405161092f9190610bfc565b60006040518083038185875af1925050503d806000811461096c576040519150601f19603f3d011682016040523d82523d6000602084013e610971565b606091505b509150915061098182828661098c565b979650505050505050565b6060831561099b575081610688565b8251156109ab5782518084602001fd5b8160405162461bcd60e51b81526004016102c89190610c18565b6001600160a01b038116811461061757600080fd5b6000602082840312156109ec57600080fd5b8135610688816109c5565b60008060408385031215610a0a57600080fd5b8235610a15816109c5565b91506020830135610a25816109c5565b809150509250929050565b600060208284031215610a4257600080fd5b5035919050565b60208082526026908201527f5061796d656e7453706c69747465723a206163636f756e7420686173206e6f2060408201526573686172657360d01b606082015260800190565b634e487b7160e01b600052601160045260246000fd5b60008219821115610ab857610ab8610a8f565b500190565b6020808252602b908201527f5061796d656e7453706c69747465723a206163636f756e74206973206e6f742060408201526a191d59481c185e5b595b9d60aa1b606082015260800190565b600060208284031215610b1a57600080fd5b5051919050565b6000600019821415610b3557610b35610a8f565b5060010190565b634e487b7160e01b600052603260045260246000fd5b6000816000190483118215151615610b6c57610b6c610a8f565b500290565b600082610b8e57634e487b7160e01b600052601260045260246000fd5b500490565b600082821015610ba557610ba5610a8f565b500390565b600060208284031215610bbc57600080fd5b8151801515811461068857600080fd5b60005b83811015610be7578181015183820152602001610bcf565b83811115610bf6576000848401525b50505050565b60008251610c0e818460208701610bcc565b9190910192915050565b6020815260008251806020840152610c37816040850160208701610bcc565b601f01601f1916919091016040019291505056fea2646970667358221220ed0fe1e9a4099db382460bf3a3bdff8d22b8ea1472ba059f52d67d7537cbcbc864736f6c634300080b0033",
  "immutableReferences": {},
  "source": "// SPDX-License-Identifier: None\r\npragma solidity ^0.8.8;\r\n\r\nimport \"@openzeppelin/contracts/finance/PaymentSplitter.sol\";\r\n\r\ncontract SutterTreasury is PaymentSplitter {\r\n  uint256 private _numberOfPayees;\r\n\r\n  constructor(address[] memory payees, uint256[] memory shares_)\r\n    payable\r\n    PaymentSplitter(payees, shares_)\r\n  {\r\n    _numberOfPayees = payees.length;\r\n  }\r\n\r\n  function withdrawAll() external {\r\n    require(address(this).balance > 0, \"No balance to withdraw\");\r\n\r\n    for (uint256 i = 0; i < _numberOfPayees; i++) {\r\n      release(payable(payee(i)));\r\n    }\r\n  }\r\n}",
  "sourcePath": "C:\\Users\\afons\\Projetos no Windows\\nft-ozzy\\contracts\\SutterTreasury.sol",
  "compiler": {
    "name": "solc",
    "version": "0.8.11+commit.d7f03943.Emscripten.clang"
  },
  "schemaVersion": "3.4.4",
  "updatedAt": "2022-02-02T21:17:58.992Z",
  "devdoc": {
    "kind": "dev",
    "methods": {
      "payee(uint256)": {
        "details": "Getter for the address of the payee number `index`."
      },
      "release(address)": {
        "details": "Triggers a transfer to `account` of the amount of Ether they are owed, according to their percentage of the total shares and their previous withdrawals."
      },
      "release(address,address)": {
        "details": "Triggers a transfer to `account` of the amount of `token` tokens they are owed, according to their percentage of the total shares and their previous withdrawals. `token` must be the address of an IERC20 contract."
      },
      "released(address)": {
        "details": "Getter for the amount of Ether already released to a payee."
      },
      "released(address,address)": {
        "details": "Getter for the amount of `token` tokens already released to a payee. `token` should be the address of an IERC20 contract."
      },
      "shares(address)": {
        "details": "Getter for the amount of shares held by an account."
      },
      "totalReleased()": {
        "details": "Getter for the total amount of Ether already released."
      },
      "totalReleased(address)": {
        "details": "Getter for the total amount of `token` already released. `token` should be the address of an IERC20 contract."
      },
      "totalShares()": {
        "details": "Getter for the total shares held by payees."
      }
    },
    "version": 1
  },
  "userdoc": {
    "kind": "user",
    "methods": {},
    "version": 1
  }
}